:020000040800F2
:1000000000280020251000081D0C0008230C000803
:10001000290C00082F0C0008350C00080000000017
:100020000000000000000000000000003B0C000881
:10003000470C000800000000530C00085F0C00088B
:100040006D1000086D1000086D1000086D1000089C
:100050006D1000086D1000086D1000086D1000088C
:100060006D1000086D1000086D1000086D1000087C
:100070006D1000086D1000086D1000086D1000086C
:100080006D1000086D1000086D1000086D1000085C
:100090006D1000086D1000086D1000086D1000084C
:1000A0006D1000086D1000086D1000086D1000083C
:1000B0006D0C00086D100008000000006D100008B5
:1000C0006D10000800000000000000006D10000826
:1000D000000000006D1000086D1000080000000016
:1000E0006D1000086D1000086D1000080000000081
:1000F0000000000000000000000000000000000000
:0C01000000000000000000005FF808F1A3
:10010C0010B5054C237833B9044B13B10448AFF345
:10011C0000800123237010BD34000020000000007B
:10012C005C26000808B5034B1BB103490348AFF329
:10013C00008008BD00000000380000205C2600088C
:10014C0080B500AF00F08EFF00F010F800F096F8CC
:10015C0000F048F8044801F0B7FE642000F090FD70
:10016C00642000F081FEFBE75000002080B590B0C9
:10017C0000AF07F1180328220021184602F03CFAC0
:10018C003B1D00221A605A609A60DA601A610223E1
:10019C00BB610123BB621023FB6200237B6307F16D
:1001AC001803184601F062FA0346002B01D000F048
:1001BC00E3F80F237B600023BB600023FB6000236C
:1001CC003B6100237B613B1D0021184601F0D0FCF4
:1001DC000346002B01D000F0CFF800BF4037BD46DE
:1001EC0080BD000080B586B000AF07F10803002287
:1001FC001A605A609A60DA603B4600221A605A60B4
:10020C001D4B4FF080421A601B4B41F63F725A60F7
:10021C00194B00229A60184B0922DA60164B002207
:10022C001A61154B00229A61134801F0FDFD03463B
:10023C00002B01D000F0A0F84FF48053BB6007F105
:10024C00080319460C4801F093FF0346002B01D01C
:10025C0000F092F800233B6000237B603B4619467C
:10026C00054802F05FF90346002B01D000F084F83A
:10027C0000BF1837BD4680BD5000002080B588B047
:10028C0000AF07F1100300221A605A609A60DA601E
:10029C002F4B9B692E4A43F0100393612C4B9B69A7
:1002AC0003F01003FB60FB68294B9B69284A43F061
:1002BC0004039361264B9B6903F00403BB60BB688A
:1002CC00234B9B69224A43F008039361204B9B69A3
:1002DC0003F008037B607B6800224FF6FE711D481B
:1002EC0001F0ACF900224FF603611B4801F0A6F9AE
:1002FC004FF400533B6100237B610123BB6107F189
:10030C0010031946154801F01DF84FF6FE733B61BA
:10031C0001237B610023BB610223FB6107F1100306
:10032C0019460C4801F00EF84FF603633B610123AC
:10033C007B610023BB610223FB6107F110031946AB
:10034C00054800F0FFFF00BF2037BD4680BD00BF51
:10035C000010024000080140000C01400010014058
:10036C0080B582B000AF786000F0F4FB00F0DAFBEF
:10037C0000BF0837BD4680BD80B400AF72B600BF69
:10038C00FEE7000080B582B000AF78607B68092B77
:10039C0000F2C88101A252F823F000BFD10300087B
:1003AC00270400087D040008D30400082905000870
:1003BC007F050008D50500082B06000881060008FB
:1003CC00D706000800224FF40071D54801F036F929
:1003DC0000224FF48061D24801F030F900224FF432
:1003EC000061CF4801F02AF900224FF48051CC482B
:1003FC0001F024F900224FF40051C94801F01EF914
:10040C0000224FF48041C64801F018F901224FF444
:10041C000041C34801F012F985E101224FF400714B
:10042C00BF4801F00BF900224FF48061BC4801F089
:10043C0005F900224FF40061B94801F0FFF80122E0
:10044C004FF48051B64801F0F9F801224FF40051F5
:10045C00B34801F0F3F801224FF48041B04801F0A9
:10046C00EDF801224FF40041AD4801F0E7F85AE1F4
:10047C0000224FF40071AA4801F0E0F800224FF47A
:10048C008061A74801F0DAF801224FF40061A4481A
:10049C0001F0D4F800224FF48051A14801F0CEF8BD
:1004AC0000224FF400519E4801F0C8F801224FF48D
:1004BC0080419B4801F0C2F800224FF4004198485B
:1004CC0001F0BCF82FE100224FF40071944801F0C8
:1004DC00B5F800224FF48061914801F0AFF800228A
:1004EC004FF400618E4801F0A9F800224FF48051BE
:1004FC008B4801F0A3F801224FF40051884801F019
:10050C009DF801224FF48041854801F097F80022B4
:10051C004FF40041824801F091F804E101224FF4BC
:10052C0000717F4801F08AF800224FF480617C480A
:10053C0001F084F800224FF40061794801F07EF854
:10054C0001224FF48051764801F078F801224FF4E3
:10055C000051734801F072F800224FF4804170484A
:10056C0001F06CF800224FF400416D4801F066F880
:10057C00D9E000224FF40071694801F05FF80122C4
:10058C004FF48061664801F059F800224FF4006185
:10059C00634801F053F800224FF48051604801F099
:1005AC004DF801224FF400515D4801F047F800224C
:1005BC004FF480415A4801F041F800224FF40041B9
:1005CC00574801F03BF8AEE000224FF4007154485C
:1005DC0001F034F801224FF48061514801F02EF8FB
:1005EC0000224FF400614E4801F028F800224FF42D
:1005FC0080514B4801F022F800224FF4005148483A
:10060C0001F01CF800224FF48041454801F016F827
:10061C0000224FF40041424801F010F883E0002220
:10062C004FF400713E4801F009F800224FF480614C
:10063C003B4801F003F800224FF40061384800F009
:10064C00FDFF01224FF48051354800F0F7FF0122E5
:10065C004FF40051324800F0F1FF01224FF4804179
:10066C002F4800F0EBFF01224FF400412C4800F022
:10067C00E5FF58E000224FF40071294800F0DEFF3E
:10068C0000224FF48061264800F0D8FF00224FF47E
:10069C000061234800F0D2FF00224FF48051204823
:1006AC0000F0CCFF00224FF400511D4800F0C6FFB3
:1006BC0000224FF480411A4800F0C0FF00224FF492
:1006CC000041174800F0BAFF2DE000224FF40071F2
:1006DC00134800F0B3FF00224FF48061104800F083
:1006EC00ADFF00224FF400610D4800F0A7FF00227F
:1006FC004FF480510A4800F0A1FF01224FF4005141
:10070C00074800F09BFF00224FF48041044800F0A2
:10071C0095FF00224FF40041014800F08FFF02E0EA
:10072C000008014000BF00BF0837BD4680BD00BFB8
:10073C0080B582B000AF78607B68092B00F2C8816D
:10074C0001A252F823F000BF7D070008D307000870
:10075C00290800087F080008D50800082B090008A4
:10076C0081090008D70900082D0A0008830A00082F
:10077C0000224FF40071D54800F060FF00224FF4C6
:10078C008061D24800F05AFF00224FF40061CF483C
:10079C0000F054FF00224FF48051CC4800F04EFF83
:1007AC0000224FF40051C94800F048FF00224FF4DA
:1007BC008041C64800F042FF01224FF40041C3487B
:1007CC0000F03CFF85E101224FF40071BF4800F0BE
:1007DC0035FF00224FF48061BC4800F02FFF00224F
:1007EC004FF40061B94800F029FF01224FF4805109
:1007FC00B64800F023FF01224FF40051B34800F03B
:10080C001DFF01224FF48041B04800F017FF012278
:10081C004FF40041AD4800F011FF5AE100224FF4B3
:10082C000071AA4800F00AFF00224FF48061A7482B
:10083C0000F004FF01224FF40061A44800F0FEFE1A
:10084C0000224FF48051A14800F0F8FE00224FF432
:10085C0000519E4800F0F2FE01224FF480419B486B
:10086C0000F0ECFE00224FF40041984800F0E6FE48
:10087C002FE100224FF40071944800F0DFFE0022BB
:10088C004FF48061914800F0D9FE00224FF40061D2
:10089C008E4800F0D3FE00224FF480518B4800F0BC
:1008AC00CDFE01224FF40051884800F0C7FE012212
:1008BC004FF48041854800F0C1FE00224FF4004106
:1008CC00824800F0BBFE04E101224FF400717F4826
:1008DC0000F0B4FE00224FF480617C4800F0AEFEC4
:1008EC0000224FF40061794800F0A8FE01224FF479
:1008FC008051764800F0A2FE01224FF4005173485B
:10090C0000F09CFE00224FF48041704800F096FEEF
:10091C0000224FF400416D4800F090FED9E0002217
:10092C004FF40071694800F089FE01224FF4806198
:10093C00664800F083FE00224FF40061634800F02B
:10094C007DFE00224FF48051604800F077FE0122BA
:10095C004FF400515D4800F071FE00224FF48041CD
:10096C005A4800F06BFE00224FF40041574800F04B
:10097C0065FEAEE000224FF40071544800F05EFEBC
:10098C0001224FF48061514800F058FE00224FF4D0
:10099C0000614E4800F052FE00224FF480514B484B
:1009AC0000F04CFE00224FF40051484800F046FE87
:1009BC0000224FF48041454800F040FE00224FF4E5
:1009CC000041424800F03AFE83E000224FF40071EF
:1009DC003E4800F033FE00224FF480613B4800F0AB
:1009EC002DFE00224FF40061384800F027FE012252
:1009FC004FF48051354800F021FE01224FF4005194
:100A0C00324800F01BFE01224FF480412F4800F0C9
:100A1C0015FE01224FF400412C4800F00FFE58E067
:100A2C0000224FF40071294800F008FE00224FF418
:100A3C008061264800F002FE00224FF4006123483A
:100A4C0000F0FCFD00224FF48051204800F0F6FD30
:100A5C0000224FF400511D4800F0F0FD00224FF42D
:100A6C0080411A4800F0EAFD00224FF4004117487B
:100A7C0000F0E4FD2DE000224FF40071134800F06B
:100A8C00DDFD00224FF48061104800F0D7FD0022FC
:100A9C004FF400610D4800F0D1FD00224FF480515D
:100AAC000A4800F0CBFD01224FF40051074800F03A
:100ABC00C5FD00224FF48041044800F0BFFD002228
:100ACC004FF40041014800F0B9FD02E0000C014078
:100ADC0000BF00BF0837BD4680BD00BF80B483B0E7
:100AEC0000AF7860054A7B681360054B00221A60E2
:100AFC0000BF0C37BD4680BC704700BFA000002073
:100B0C009800002080B400AF044B00221A60044B04
:100B1C0032221A6000BFBD4680BC70479C0000208A
:100B2C000000002080B400AF084B1B68002B05DDD3
:100B3C00064B1B68013B054A136002E0044B012283
:100B4C001A6000BFBD4680BC704700BF000000208B
:100B5C009C00002080B400AF084B1B68002B05DD07
:100B6C00064B1B68013B054A136002E0044B012253
:100B7C001A6000BFBD4680BC704700BFA0000020BB
:100B8C009800002080B483B000AF0E4B9B690D4AD7
:100B9C0043F0010393610B4B9B6903F001037B60F2
:100BAC007B68084BDB69074A43F08053D361054BE4
:100BBC00DB6903F080533B603B6800BF0C37BD46DC
:100BCC0080BC70470010024080B584B000AF7860E4
:100BDC007B681B68B3F1804F13D10C4BDB690B4A5C
:100BEC0043F00103D361094BDB6903F00103FB60A4
:100BFC00FB68002200211C2000F06DFB1C2000F083
:100C0C0086FB00BF1037BD4680BD00BF0010024000
:100C1C0080B400AFFEE780B400AFFEE780B400AF55
:100C2C00FEE780B400AFFEE780B400AFFEE780B40F
:100C3C0000AF00BFBD4680BC704780B400AF00BFA2
:100C4C00BD4680BC704780B400AF00BFBD4680BCC1
:100C5C00704780B500AF00F04BFA00BF80BD0000BC
:100C6C0080B500AF024801F07BF900BF80BD00BF2A
:100C7C005000002080B400AF00BFBD4680BC704760
:100C8C0080B582B000AF786000224FF480711448B8
:100C9C0000F0D4FC00220221124800F0CFFC01220B
:100CAC0080210F4800F0CAFC012201210D4800F000
:100CBC00C5FC7868FFF712FF0B4B1B68184600F059
:100CCC0019F80A4B1B68184600F052F8FFF71AFF88
:100CDC00074B01221A6000BF0837BD4680BD00BF1C
:100CEC0000080140000C01400C000020A400002072
:100CFC000400002080B582B000AF78607B68002BC8
:100D0C0016D07B68012B27D100220221144800F059
:100D1C0095FC01220421124800F090FC01220821CC
:100D2C000F4800F08BFC0F4B1B680F4A136013E04D
:100D3C00002210210A4800F081FC012220210848E1
:100D4C0000F07CFC01224021054800F077FC054BAB
:100D5C001B68064A136000BF00BF0837BD4680BD44
:100D6C0000080140100000201C0000202000002082
:100D7C0080B582B000AF78607B68002B16D07B68A2
:100D8C00012B27D101220221144800F057FC01222B
:100D9C000421124800F052FC002208210F4800F0F8
:100DAC004DFC0F4B1B680F4A136013E001221021FE
:100DBC000A4800F043FC01222021084800F03EFCC8
:100DCC0000224021054800F039FC054B1B68064AFF
:100DDC00136000BF00BF0837BD4680BD000801404E
:100DEC00180000201C0000202000002080B582B0DC
:100DFC0000AF78607B68002B16D07B68012B27D165
:100E0C0001220221144800F019FC0022042112488E
:100E1C0000F014FC012208210F4800F00FFC0F4BCE
:100E2C001B680F4A136013E0012210210A4800F0DE
:100E3C0005FC00222021084800F000FC0122402182
:100E4C00054800F0FBFB054B1B68064A136000BF0E
:100E5C0000BF0837BD4680BD0008014014000020CB
:100E6C001C0000202000002080B582B000AF78600C
:100E7C005F4B1B68012B40F0B7805E4B1B6818461C
:100E8C00FFF780FA5B4B1B68013B5A4A13605A4BC5
:100E9C001B68032B1DD0032B49DC012B02D0022B2A
:100EAC002ED044E0534B1B68002B0CD1534B1B68CA
:100EBC00514A13604F4B03221A60514B1B68184662
:100ECC00FFF756FF33E04E4B1B681846FFF712FF37
:100EDC002DE0484B1B68002B0CD14A4B1B68464A33
:100EEC001360444B02221A60454B1B681846FFF7EF
:100EFC007DFF1CE0424B1B681846FFF739FF16E0DC
:100F0C003C4B1B68002B0CD13F4B1B683A4A1360BF
:100F1C00384B05221A603A4B1B681846FFF7EAFE5D
:100F2C0004E0374B1B681846FFF760FF00BF374BD8
:100F3C001B681846FFF7FCFB344B1B68013B334A1C
:100F4C001360334B1B68032B1DD0032B49DC012B87
:100F5C0002D0022B2ED044E02C4B1B68002B0CD162
:100F6C00264B1B682A4A1360284B03221A60294B14
:100F7C001B681846FFF7FCFE33E0264B1B6818462F
:100F8C00FFF7B8FE2DE0214B1B68002B0CD11D4B3D
:100F9C001B681F4A13601D4B02221A601D4B1B68F5
:100FAC001846FFF723FF1CE01A4B1B681846FFF787
:100FBC00DFFE16E0154B1B68002B0CD1124B1B6887
:100FCC00134A1360114B05221A60124B1B6818460A
:100FDC00FFF790FE04E00F4B1B681846FFF706FF67
:100FEC0000BF7868FFF77AFD00BF0837BD4680BDAB
:100FFC0098000020240000201C0000201800002075
:10100C000C000020140000201000002028000020FC
:10101C0020000020A4000020FFF72CFE0B480C49F8
:10102C000C4A002302E0D458C4500433C4188C4238
:10103C00F9D3094A094C002301E013600432A2429F
:10104C00FBD301F0E1FAFFF77BF8704700000020BA
:10105C0034000020A026000834000020AC00002042
:10106C00FEE7000080B500AF084B1B68074A43F051
:10107C0010031360032000F023F90F2000F008F890
:10108C00FFF780FD0023184680BD00BF0020024002
:10109C0080B582B000AF7860124B1A68124B1B7887
:1010AC0019464FF47A73B3FBF1F3B2FBF3F3184622
:1010BC0000F03BF90346002B01D001230EE07B68C6
:1010CC000F2B0AD8002279684FF0FF3000F003F99B
:1010DC00064A7B681360002300E00123184608379A
:1010EC00BD4680BD08000020300000202C000020F0
:1010FC0080B400AF054B1B781A46054B1B68134494
:10110C00034A136000BFBD4680BC7047300000200E
:10111C00A800002080B400AF024B1B681846BD46E7
:10112C0080BC7047A800002080B485B000AF786008
:10113C007B6803F00703FB600C4BDB68BB60BA6891
:10114C004FF6FF031340BB60FB681A02BB681343E6
:10115C0043F0BF6343F40033BB60044ABB68D36005
:10116C0000BF1437BD4680BC704700BF00ED00E0E7
:10117C0080B400AF044BDB681B0A03F0070318466E
:10118C00BD4680BC704700BF00ED00E080B483B06A
:10119C0000AF0346FB7197F90730002B0BDBFB7993
:1011AC0003F01F02064997F907305B09012000FA8A
:1011BC0002F241F8232000BF0C37BD4680BC7047BB
:1011CC0000E100E080B483B000AF03463960FB71EE
:1011DC0097F90730002B0ADB3B68DAB20C4997F918
:1011EC0007301201D2B20B4483F800230AE03B68AB
:1011FC00DAB20849FB7903F00F03043B1201D2B2B7
:10120C000B441A7600BF0C37BD4680BC704700BF3C
:10121C0000E100E000ED00E080B489B000AFF860C0
:10122C00B9607A60FB6803F00703FB61FB69C3F1EB
:10123C000703042B28BF0423BB61FB690433062B73
:10124C0002D9FB69033B00E000237B614FF0FF32C6
:10125C00BB6902FA03F3DA43BB681A407B699A4014
:10126C004FF0FF317B6901FA03F3D9437B680B40E4
:10127C00134318462437BD4680BC704780B582B0F6
:10128C0000AF78607B68013BB3F1807F01D3012311
:10129C000FE00A4A7B68013B53600F214FF0FF308F
:1012AC00FFF790FF054B00229A60044B07221A604F
:1012BC00002318460837BD4680BD00BF10E000E093
:1012CC0080B582B000AF78607868FFF72DFF00BF63
:1012DC000837BD4680BD80B586B000AF0346B96007
:1012EC007A60FB7300237B61FFF742FF78617A68B9
:1012FC00B9687869FFF790FF024697F90F301146ED
:10130C001846FFF75FFF00BF1837BD4680BD80B59C
:10131C0082B000AF0346FB7197F907301846FFF710
:10132C0035FF00BF0837BD4680BD80B582B000AF29
:10133C0078607868FFF7A2FF034618460837BD4669
:10134C0080BD000080B48BB000AF786039600023A2
:10135C007B6200233B6261E101227B6A02FA03F3A8
:10136C00FB613B681B68FA691340BB61BA69FB6996
:10137C009A4240F050813B685B68974A93425ED03A
:10138C00954A934275D8954A934258D0934A9342C2
:10139C006FD8934A934252D0914A934269D8914A5A
:1013AC0093424CD08F4A934263D88F4A934246D093
:1013BC008D4A93425DD8122B2AD8122B59D801A2F0
:1013CC0052F823F04B1400082514000837140008B9
:1013DC00791400087F1400087F1400087F1400089B
:1013EC007F1400087F1400087F1400087F14000885
:1013FC007F1400087F1400087F1400087F14000875
:10140C007F1400087F1400082D14000841140008F4
:10141C00764A934213D02CE03B68DB683B6229E0B0
:10142C003B68DB6804333B6224E03B68DB680833D1
:10143C003B621FE03B68DB680C333B621AE03B68A5
:10144C009B68002B02D104233B6213E03B689B6832
:10145C00012B05D108233B627B68FA691A6109E00C
:10146C0008233B627B68FA695A6103E000233B6204
:10147C0000E000BFBB69FF2B01D87B6801E07B68F3
:10148C0004337B61BB69FF2B02D87B6A9B0002E0B3
:10149C007B6A083B9B003B617B691A680F213B69A7
:1014AC0001FA03F3DB431A40396A3B6901FA03F38F
:1014BC001A437B691A603B685B6803F08053002B0E
:1014CC0000F0A9804A4B9B69494A43F001039361A0
:1014DC00474B9B6903F00103BB60BB68454A7B6AC1
:1014EC009B08023352F82330FB607B6A03F0030342
:1014FC009B000F2202FA03F3DB43FA681340FB60F4
:10150C007B683D4A93420DD07B683C4A934207D09E
:10151C007B683B4A934201D1022304E0032302E09F
:10152C00012300E000237A6A02F003029200934048
:10153C00FA681343FB602F497B6A9B080233FA68F5
:10154C0041F823203B685B6803F48013002B06D022
:10155C002C4B9A682B49BB6913438B6006E0294BD3
:10156C009A68BB69DB43274913408B603B685B6817
:10157C0003F40013002B06D0224BDA682149BB6917
:10158C001343CB6006E01F4BDA68BB69DB431D4994
:10159C001340CB603B685B6803F40033002B06D030
:1015AC00184B5A681749BB6913434B6006E0154B3F
:1015BC005A68BB69DB43134913404B603B685B685B
:1015CC0003F48033002B1FD00E4B1A680D49BB69F6
:1015DC0013430B601FE000BF0000321000003110FD
:1015EC000000221000002110000012100000111049
:1015FC00001002400000014000080140000C0140B6
:10160C0000100140000401400B4B1A68BB69DB431E
:10161C00094913400B607B6A01337B623B681A6893
:10162C007B6A22FA03F3002B7FF496AE00BF00BF57
:10163C002C37BD4680BC70470004014080B483B099
:10164C0000AF78600B467B8013467B707B78002B59
:10165C0003D07A887B681A6103E07B881A047B6864
:10166C001A6100BF0C37BD4680BC704780B586B090
:10167C0000AF78607B68002B01D1012372E27B689C
:10168C001B6803F00103002B00F08780924B5B6812
:10169C0003F00C03042B0CD08F4B5B6803F00C0392
:1016AC00082B12D18C4B5B6803F48033B3F5803F6D
:1016BC000BD1894B1B6803F40033002B6CD07B6877
:1016CC005B68002B68D101234CE27B685B68B3F547
:1016DC00803F06D1804B1B687F4A43F480331360F4
:1016EC002EE07B685B68002B0CD17B4B1B687A4A25
:1016FC0023F480331360784B1B68774A23F48023E0
:10170C0013601DE07B685B68B3F5A02F0CD1724BA6
:10171C001B68714A43F4802313606F4B1B686E4A3D
:10172C0043F4803313600BE06B4B1B686A4A23F461
:10173C0080331360684B1B68674A23F48023136063
:10174C007B685B68002B13D0FFF7E4FC386108E082
:10175C00FFF7E0FC02463B69D31A642B01D9032343
:10176C0000E25D4B1B6803F40033002BF0D014E057
:10177C00FFF7D0FC386108E0FFF7CCFC02463B6970
:10178C00D31A642B01D90323ECE1534B1B6803F4EC
:10179C000033002BF0D100E000BF7B681B6803F026
:1017AC000203002B63D04C4B5B6803F00C03002B43
:1017BC000BD0494B5B6803F00C03082B1CD1464B38
:1017CC005B6803F48033002B16D1434B1B6803F08A
:1017DC000203002B05D07B681B69012B01D0012370
:1017EC00C0E13D4B1B6823F0F8027B685B69DB00B2
:1017FC00394913430B603AE07B681B69002B20D0FE
:10180C00364B01221A60FFF785FC386108E0FFF7C0
:10181C0081FC02463B69D31A022B01D90323A1E1B7
:10182C002D4B1B6803F00203002BF0D02A4B1B68D6
:10183C0023F0F8027B685B69DB00274913430B60DC
:10184C0015E0264B00221A60FFF764FC386108E0B3
:10185C00FFF760FC02463B69D31A022B01D9032324
:10186C0080E11D4B1B6803F00203002BF0D17B6859
:10187C001B6803F00803002B3AD07B689B69002B94
:10188C0019D0174B01221A60FFF744FC386108E0AD
:10189C00FFF740FC02463B69D31A022B01D9032304
:1018AC0060E10D4B5B6A03F00203002BF0D00120CA
:1018BC0000F09CFA1CE00A4B00221A60FFF72AFC8D
:1018CC0038610FE0FFF726FC02463B69D31A022B66
:1018DC0008D9032346E100BF001002400000424239
:1018EC0080044242924B5B6A03F00203002BE9D165
:1018FC007B681B6803F00403002B00F0A680002318
:10190C00FB758B4BDB6903F08053002B0DD1884B9F
:10191C00DB69874A43F08053D361854BDB6903F065
:10192C008053BB60BB680123FB75824B1B6803F4BF
:10193C008073002B18D17F4B1B687E4A43F4807355
:10194C001360FFF7E7FB386108E0FFF7E3FB0246A3
:10195C003B69D31A642B01D9032303E1754B1B6834
:10196C0003F48073002BF0D07B68DB68012B06D16D
:10197C006F4B1B6A6E4A43F0010313622DE07B68C8
:10198C00DB68002B0CD16A4B1B6A694A23F00103FC
:10199C001362674B1B6A664A23F0040313621CE054
:1019AC007B68DB68052B0CD1614B1B6A604A43F0EA
:1019BC00040313625E4B1B6A5D4A43F0010313621E
:1019CC000BE05B4B1B6A5A4A23F001031362584B22
:1019DC001B6A574A23F0040313627B68DB68002BF5
:1019EC0015D0FFF797FB38610AE0FFF793FB02462F
:1019FC003B69D31A41F28832934201D90323B1E0F7
:101A0C004B4B1B6A03F00203002BEED014E0FFF7E4
:101A1C0081FB38610AE0FFF77DFB02463B69D31A74
:101A2C0041F28832934201D903239BE0404B1B6A5D
:101A3C0003F00203002BEED1FB7D012B05D13C4BB7
:101A4C00DB693B4A23F08053D3617B68DB69002B55
:101A5C0000F08780364B5B6803F00C03082B61D0D9
:101A6C007B68DB69022B46D1334B00221A60FFF7EF
:101A7C0051FB386108E0FFF74DFB02463B69D31A76
:101A8C00022B01D903236DE0294B1B6803F0007373
:101A9C00002BF0D17B681B6AB3F5803F08D1244B37
:101AAC005B6823F400327B689B68214913434B60CD
:101ABC001F4B5B6823F474127B68196A7B685B6A42
:101ACC000B431B4913434B601B4B01221A60FFF75E
:101ADC0021FB386108E0FFF71DFB02463B69D31A76
:101AEC00022B01D903233DE0114B1B6803F000735B
:101AFC00002BF0D035E0104B00221A60FFF70AFBE8
:101B0C00386108E0FFF706FB02463B69D31A022B4B
:101B1C0001D9032326E0064B1B6803F00073002B4E
:101B2C00F0D11EE07B68DB69012B07D1012319E0A2
:101B3C000010024000700040600042420B4B5B689A
:101B4C00FB60FB6803F480327B681B6A9A4206D107
:101B5C00FB6803F470127B685B6A9A4201D0012324
:101B6C0000E0002318461837BD4680BD0010024027
:101B7C0080B584B000AF786039607B68002B01D1F0
:101B8C000123D0E06A4B1B6803F007033A689A42C2
:101B9C0010D9674B1B6823F0070265493B68134358
:101BAC000B60634B1B6803F007033A689A4201D041
:101BBC000123B8E07B681B6803F00203002B20D0E4
:101BCC007B681B6803F00403002B05D0594B5B6842
:101BDC00584A43F4E06353607B681B6803F00803C6
:101BEC00002B05D0534B5B68524A43F4605353604F
:101BFC00504B5B6823F0F0027B689B684D491343A4
:101C0C004B607B681B6803F00103002B40D07B68A2
:101C1C005B68012B07D1474B1B6803F40033002B87
:101C2C0015D101237FE07B685B68022B07D1414B08
:101C3C001B6803F00073002B09D1012373E03D4BAB
:101C4C001B6803F00203002B01D101236BE0394B1D
:101C5C005B6823F003027B685B68364913434B6077
:101C6C00FFF758FAF8600AE0FFF754FA0246FB68EF
:101C7C00D31A41F28832934201D9032353E02D4BFE
:101C8C005B6803F00C027B685B689B009A42EBD1AB
:101C9C00274B1B6803F007033A689A4210D2244B77
:101CAC001B6823F0070222493B6813430B60204B4F
:101CBC001B6803F007033A689A4201D0012332E013
:101CCC007B681B6803F00403002B08D0194B5B687E
:101CDC0023F4E0627B68DB68164913434B607B6836
:101CEC001B6803F00803002B09D0124B5B6823F42C
:101CFC0060527B681B69DB000E4913434B6000F09C
:101D0C0021F802460B4B5B681B0903F00F030A49D1
:101D1C00CB5C22FA03F3094A1360094B1B68184683
:101D2C00FFF7B6F9002318461037BD4680BD00BF3B
:101D3C000020024000100240742600080800002019
:101D4C002C00002080B487B000AF0023FB60002380
:101D5C00BB6000237B6100237B6000233B611E4B37
:101D6C005B68FB60FB6803F00C03042B02D0082BB0
:101D7C0003D027E0194B3B6127E0FB689B0C03F079
:101D8C000F03174AD35C7B60FB6803F48033002B92
:101D9C0010D0114B5B685B0C03F00103114AD35C50
:101DAC00BB607B680D4A03FB02F2BB68B2FBF3F32A
:101DBC007B6104E07B680C4A02FB03F37B617B696B
:101DCC003B6102E0054B3B6100BF3B6918461C3789
:101DDC00BD4680BC704700BF0010024000127A0064
:101DEC00842600089426000800093D0080B485B0C4
:101DFC0000AF78600A4B1B680A4AA2FB03235B0AFC
:101E0C007A6802FB03F3FB6000BFFB685A1EFA60A2
:101E1C00002BF9D100BF00BF1437BD4680BC704702
:101E2C0008000020D34D621080B582B000AF7860FE
:101E3C007B68002B01D1012341E07B6893F83D3096
:101E4C00DBB2002B06D17B68002283F83C2078683B
:101E5C00FEF7BAFE7B68022283F83D207B681A6885
:101E6C007B6804331946104600F06EFA7B68012239
:101E7C0083F846207B68012283F83E207B68012290
:101E8C0083F83F207B68012283F840207B68012285
:101E9C0083F841207B68012283F842207B68012271
:101EAC0083F843207B68012283F844207B6801225D
:101EBC0083F845207B68012283F83D2000231846D7
:101ECC000837BD4680BD000080B485B000AF786097
:101EDC007B6893F83D30DBB2012B01D0012335E058
:101EEC007B68022283F83D207B681B68DA687B687C
:101EFC001B6842F00102DA607B681B68164A934249
:101F0C0009D07B681B68B3F1804F04D07B681B68D9
:101F1C00124A934211D17B681B689B6803F007033C
:101F2C00FB60FB68062B10D07B681B681A687B680B
:101F3C001B6842F001021A6007E07B681B681A6894
:101F4C007B681B6842F001021A60002318461437A4
:101F5C00BD4680BC704700BF002C0140000400400F
:101F6C0080B582B000AF78607B681B681B6903F09A
:101F7C000203022B22D17B681B68DB6803F002038F
:101F8C00022B1BD17B681B686FF002021A617B6805
:101F9C0001221A777B681B689B6903F00303002BF3
:101FAC0003D0786800F0B4F905E0786800F0A7F980
:101FBC00786800F0B6F97B6800221A777B681B689A
:101FCC001B6903F00403042B22D17B681B68DB68BC
:101FDC0003F00403042B1BD17B681B686FF0040215
:101FEC001A617B6802221A777B681B689B6903F471
:101FFC004073002B03D0786800F08AF905E078680C
:10200C0000F07DF9786800F08CF97B6800221A7773
:10201C007B681B681B6903F00803082B22D17B68C3
:10202C001B68DB6803F00803082B1BD17B681B685B
:10203C006FF008021A617B6804221A777B681B68B0
:10204C00DB6903F00303002B03D0786800F060F920
:10205C0005E0786800F053F9786800F062F97B6865
:10206C0000221A777B681B681B6903F01003102B86
:10207C0022D17B681B68DB6803F01003102B1BD18B
:10208C007B681B686FF010021A617B6808221A7754
:10209C007B681B68DB6903F44073002B03D0786802
:1020AC0000F036F905E0786800F029F9786800F05E
:1020BC0038F97B6800221A777B681B681B6903F070
:1020CC000103012B0ED17B681B68DB6803F0010355
:1020DC00012B07D17B681B686FF001021A617868CD
:1020EC00FEF73EF97B681B681B6903F08003802BAD
:1020FC000ED17B681B68DB6803F08003802B07D153
:10210C007B681B686FF080021A61786800F06BFACC
:10211C007B681B681B6903F04003402B0ED17B6866
:10212C001B68DB6803F04003402B07D17B681B68FE
:10213C006FF040021A61786800F0FCF87B681B684D
:10214C001B6903F02003202B0ED17B681B68DB6816
:10215C0003F02003202B07D17B681B686FF0200253
:10216C001A61786800F036FA00BF0837BD4680BDAA
:10217C0080B584B000AF786039600023FB737B6856
:10218C0093F83C30012B01D10223B4E07B6801228F
:10219C0083F83C207B68022283F83D207B681B6817
:1021AC009B68BB60BB6823F07703BB60BB6823F400
:1021BC007F43BB607B681B68BA689A603B681B688E
:1021CC00B3F5005F3ED0B3F5005F00F28780B3F546
:1021DC00805F00F08680B3F5805F7FD8702B1AD0BB
:1021EC00702B7BD8602B50D0602B77D8502B3CD0E9
:1021FC00502B73D8402B58D0402B6FD8302B64D039
:10220C00302B6BD8202B60D0202B67D8002B5CD0C8
:10221C00102B5AD062E07B6818683B6899683B6861
:10222C005A683B68DB6800F05EF97B681B689B684A
:10223C00BB60BB6843F07703BB607B681B68BA6804
:10224C009A604FE07B6818683B6899683B685A68ED
:10225C003B68DB6800F047F97B681B689A687B6811
:10226C001B6842F480429A603CE07B6818683B68CB
:10227C0059683B68DB681A4600F0BEF87B681B683F
:10228C005021184600F015F92CE07B6818683B6863
:10229C0059683B68DB681A4600F0DCF87B681B6801
:1022AC006021184600F005F91CE07B6818683B6853
:1022BC0059683B68DB681A4600F09EF87B681B681F
:1022CC004021184600F0F5F80CE07B681A683B6872
:1022DC001B681946104600F0ECF803E00123FB7371
:1022EC0000E000BF7B68012283F83D207B68002260
:1022FC0083F83C20FB7B18461037BD4680BD80B46C
:10230C0083B000AF786000BF0C37BD4680BC70470F
:10231C0080B483B000AF786000BF0C37BD4680BC82
:10232C00704780B483B000AF786000BF0C37BD46F7
:10233C0080BC704780B483B000AF786000BF0C37AE
:10234C00BD4680BC7047000080B485B000AF78609B
:10235C0039607B681B68FB607B68254A934207D019
:10236C007B68B3F1804F03D07B68224A934208D13B
:10237C00FB6823F07003FB603B685B68FA681343EF
:10238C00FB607B681A4A934207D07B68B3F1804F9D
:10239C0003D07B68174A934208D1FB6823F440733F
:1023AC00FB603B68DB68FA681343FB60FB6823F057
:1023BC0080023B685B691343FB607B68FA681A60B8
:1023CC003B689A687B68DA623B681A687B689A6239
:1023DC007B68074A934203D13B681A697B681A638E
:1023EC007B6801225A6100BF1437BD4680BC704720
:1023FC00002C01400004004080B487B000AFF860AE
:10240C00B9607A60FB681B6A7B61FB681B6A23F00E
:10241C000102FB681A62FB689B693B613B6923F014
:10242C00F0033B617B681B013A6913433B617B6999
:10243C0023F00A037B617A69BB6813437B61FB68F9
:10244C003A699A61FB687A691A6200BF1C37BD460B
:10245C0080BC704780B487B000AFF860B9607A6018
:10246C00FB681B6A7B61FB681B6A23F01002FB682C
:10247C001A62FB689B693B613B6923F470433B61C7
:10248C007B681B033A6913433B617B6923F0A00310
:10249C007B61BB681B017A6913437B61FB683A69FA
:1024AC009A61FB687A691A6200BF1C37BD4680BC12
:1024BC00704780B485B000AF786039607B689B68EA
:1024CC00FB60FB6823F07003FB603A68FB68134306
:1024DC0043F00703FB607B68FA689A6000BF14370F
:1024EC00BD4680BC704780B487B000AFF860B9605F
:1024FC007A603B60FB689B687B617B6923F47F435C
:10250C007B613B681A027B681A43BB6813437A6988
:10251C0013437B61FB687A699A6000BF1C37BD4628
:10252C0080BC704780B485B000AF786039607B6840
:10253C0093F83C30012B01D1022341E07B6801224E
:10254C0083F83C207B68022283F83D207B681B6863
:10255C005B68FB607B681B689B68BB60FB6823F057
:10256C007003FB603B681B68FA681343FB607B6875
:10257C001B68FA685A607B681B68144A934209D03E
:10258C007B681B68B3F1804F04D07B681B68104AD2
:10259C0093420CD1BB6823F08003BB603B685B6843
:1025AC00BA681343BB607B681B68BA689A607B6827
:1025BC00012283F83D207B68002283F83C20002315
:1025CC0018461437BD4680BC704700BF002C014034
:1025DC000004004080B483B000AF786000BF0C37BB
:1025EC00BD4680BC704780B483B000AF786000BF3C
:1025FC000C37BD4680BC704703460244934200D161
:10260C00704703F8011BF9E770B500260C4D0D4C13
:10261C00641BA410A64209D100F01AF800260A4D3A
:10262C000A4C641BA410A64205D170BD55F8043B9E
:10263C0098470136EEE755F8043B98470136F2E728
:10264C009826000898260008982600089C26000862
:10265C00F8B500BFF8BC08BC9E467047F8B500BF83
:08266C00F8BC08BC9E46704753
:10267400000000000000000001020304060708092E
:1026840002030405060708090A0B0C0D0E0F1010AF
:04269400010200003F
:042698003101000804
:04269C000D01000824
:1026A00032000000010000000024F40001000000DE
:1026B0000100000002000000030000000100000013
:1026C00003000000050000000300000010000000EF
:0426D0000100000005
:0400000508001025BA
:00000001FF
