:020000040800F2
:1000000000280020BD110008B50D0008BB0D000838
:10001000C10D0008C70D0008CD0D0008000000004C
:10002000000000000000000000000000D30D0008E8
:10003000DF0D000800000000EB0D0008F70D0008C0
:100040000512000805120008051200080512000834
:100050000512000805120008051200080512000824
:100060000512000805120008051200080512000814
:100070000512000805120008051200080512000804
:1000800005120008051200080512000805120008F4
:1000900005120008051200080512000805120008E4
:1000A00005120008051200080512000805120008D4
:1000B000050E0008051200080000000005120008E7
:1000C00005120008000000000000000005120008F2
:1000D00000000000051200080512000800000000E2
:1000E00005120008051200080512000800000000B3
:1000F0000000000000000000000000000000000000
:0C01000000000000000000005FF808F1A3
:10010C0010B5054C237833B9044B13B10448AFF345
:10011C0000800123237010BD64000020000000004B
:10012C002428000808B5034B1BB103490348AFF35F
:10013C00008008BD00000000680000202428000892
:10014C0080B500AF174B1B68174A1360174B1B6821
:10015C00144A13600421164801F03CFB03461A466E
:10016C00124B1A600F4B1A68104B1B689A4216D12F
:10017C000C4B1A680C4B1B689A4210D10A4B1A682C
:10018C000C4B1B689A420AD0074B1B68094A136038
:10019C00084B1B68002B02D1074B01221A6000BFD1
:1001AC0080BD00BF0C0000201800002000000020C3
:1001BC00000C0140240000208000002080B500AF1E
:1001CC00174B5B68174A5360174B5B68144A5360B4
:1001DC000821164801F0FEFA03461A46124B5A60E3
:1001EC000F4B5A68104B5B689A4216D10C4B5A68ED
:1001FC000C4B5B689A4210D10A4B5A680C4B5B68EB
:10020C009A420AD0074B5B68094A5360084B5B68FB
:10021C00002B02D1074B01221A6000BF80BD00BF2A
:10022C000C0000201800002000000020000C0140F1
:10023C00240000208400002080B500AF174B9B6881
:10024C00174A9360174B9B68144A93601021164809
:10025C0001F0C0FA03461A46124B9A600F4B9A688B
:10026C00104B9B689A4216D10C4B9A680C4B9B68AE
:10027C009A4210D10A4B9A680C4B9B689A420AD04E
:10028C00074B9B68094A9360084B9B68002B02D173
:10029C00074B01221A6000BF80BD00BF0C0000207C
:1002AC001800002000000020000C01402400002059
:1002BC008800002080B500AF00F0A0FF00F010F81F
:1002CC0000F096F800F048F8044801F0E1FE6420D4
:1002DC0000F0A2FD642000F093FEFBE78C000020F0
:1002EC0080B590B000AF07F1180328220021184602
:1002FC0002F066FA3B1D00221A605A609A60DA60BE
:10030C001A610223BB610123BB621023FB62002331
:10031C007B6307F11803184601F08CFA0346002B97
:10032C0001D000F0F5F80F237B600023BB600023A5
:10033C00FB6000233B6100237B613B1D00211846C1
:10034C0001F0FAFC0346002B01D000F0E1F800BFED
:10035C004037BD4680BD000080B586B000AF07F1C8
:10036C00080300221A605A609A60DA603B46002249
:10037C001A605A601D4B4FF080421A601B4B41F6BD
:10038C003F725A60194B00229A60184B0922DA60AE
:10039C00164B00221A61154B00229A61134801F08A
:1003AC0027FE0346002B01D000F0B2F84FF4805327
:1003BC00BB6007F1080319460C4801F0BDFF03466A
:1003CC00002B01D000F0A4F800233B6000237B60DD
:1003DC003B461946054802F089F90346002B01D02B
:1003EC0000F096F800BF1837BD4680BD8C00002089
:1003FC0080B588B000AF07F1100300221A605A6074
:10040C009A60DA60354B9B69344A43F01003936170
:10041C00324B9B6903F01003FB60FB682F4B9B690D
:10042C002E4A43F0040393612C4B9B6903F00403A5
:10043C00BB60BB68294B9B69284A43F00803936156
:10044C00264B9B6903F008037B607B6800224FF608
:10045C00FE71234801F0D5F900224FF603612148C3
:10046C0001F0CFF94FF400533B6100237B61012372
:10047C00BB6107F1100319461B4801F02FF84FF62A
:10048C00FE733B6101237B610023BB610223FB6193
:10049C0007F110031946124801F020F84FF60363D8
:1004AC003B6101237B610023BB610223FB6107F1EC
:1004BC00100319460B4801F011F81C233B61002373
:1004CC007B610123BB6107F110031946054801F05C
:1004DC0005F800BF2037BD4680BD00BF00100240AC
:1004EC0000080140000C01400010014080B582B0B2
:1004FC0000AF786000F0FAFB00F0E0FBFFF720FEA5
:10050C00FFF75CFEFFF798FE00BF0837BD4680BDC5
:10051C0080B400AF72B600BFFEE7000080B582B0B9
:10052C0000AF78607B68092B00F2C88101A252F8F9
:10053C0023F000BF69050008BF0500081506000878
:10054C006B060008C1060008170700086D070008B5
:10055C00C3070008190800086F08000800224FF4B0
:10056C000071D54801F04DF900224FF48061D2485A
:10057C0001F047F900224FF40061CF4801F041F936
:10058C0000224FF48051CC4801F03BF900224FF48B
:10059C000051C94801F035F900224FF48041C6489A
:1005AC0001F02FF901224FF40041C34801F029F961
:1005BC0085E101224FF40071BF4801F022F90022BD
:1005CC004FF48061BC4801F01CF900224FF400612B
:1005DC00B94801F016F901224FF48051B64801F0E8
:1005EC0010F901224FF40051B34801F00AF901222D
:1005FC004FF48041B04801F004F901224FF400415E
:10060C00AD4801F0FEF85AE100224FF40071AA48FF
:10061C0001F0F7F800224FF48061A74801F0F1F8DF
:10062C0001224FF40061A44801F0EBF800224FF4D2
:10063C008051A14801F0E5F800224FF400519E488A
:10064C0001F0DFF801224FF480419B4801F0D9F80A
:10065C0000224FF40041984801F0D3F82FE100221A
:10066C004FF40071944801F0CCF800224FF48061F3
:10067C00914801F0C6F800224FF400618E4801F059
:10068C00C0F800224FF480518B4801F0BAF80122D7
:10069C004FF40051884801F0B4F801224FF4804126
:1006AC00854801F0AEF800224FF40041824801F079
:1006BC00A8F804E101224FF400717F4801F0A1F881
:1006CC0000224FF480617C4801F09BF800224FF42B
:1006DC000061794801F095F801224FF48051764879
:1006EC0001F08FF801224FF40051734801F089F8A2
:1006FC0000224FF48041704801F083F800224FF43F
:10070C0000416D4801F07DF8D9E000224FF40071F2
:10071C00694801F076F801224FF48061664801F0D7
:10072C0070F800224FF40061634801F06AF800226F
:10073C004FF48051604801F064F801224FF40051ED
:10074C005D4801F05EF800224FF480415A4801F0F8
:10075C0058F800224FF40041574801F052F8AEE02F
:10076C0000224FF40071544801F04BF801224FF471
:10077C008061514801F045F800224FF400614E4869
:10078C0001F03FF800224FF480514B4801F039F84A
:10079C0000224FF40051484801F033F800224FF486
:1007AC008041454801F02DF800224FF400414248A9
:1007BC0001F027F883E000224FF400713E4801F06D
:1007CC0020F800224FF480613B4801F01AF8002217
:1007DC004FF40061384801F014F801224FF48051B5
:1007EC00354801F00EF801224FF40051324801F067
:1007FC0008F801224FF480412F4801F002F8012241
:10080C004FF400412C4800F0FCFF58E000224FF45C
:10081C000071294800F0F5FF00224FF48061264852
:10082C0000F0EFFF00224FF40061234800F0E9FFD5
:10083C0000224FF48051204800F0E3FF00224FF4D7
:10084C0000511D4800F0DDFF00224FF480411A4892
:10085C0000F0D7FF00224FF40041174800F0D1FF01
:10086C002DE000224FF40071134800F0CAFF002263
:10087C004FF48061104800F0C4FF00224FF4006177
:10088C000D4800F0BEFF00224FF480510A4800F0E2
:10089C00B8FF01224FF40051074800F0B2FF0022CC
:1008AC004FF48041044800F0ACFF00224FF40041AB
:1008BC00014800F0A6FF02E00008014000BF00BFA5
:1008CC000837BD4680BD00BF80B582B000AF7860F0
:1008DC007B68092B00F2C88101A252F823F000BFFB
:1008EC00150900086B090008C1090008170A00085F
:1008FC006D0A0008C30A0008190B00086F0B0008EA
:10090C00C50B00081B0C000800224FF40071D548E1
:10091C0000F077FF00224FF48061D24800F071FFA5
:10092C0000224FF40061CF4800F06BFF00224FF41F
:10093C008051CC4800F065FF00224FF40051C948AB
:10094C0000F05FFF00224FF48041C64800F059FFD1
:10095C0001224FF40041C34800F053FF85E101220E
:10096C004FF40071BF4800F04CFF00224FF480613F
:10097C00BC4800F046FF00224FF40061B94800F07B
:10098C0040FF01224FF48051B64800F03AFF01229B
:10099C004FF40051B34800F034FF01224FF4804172
:1009AC00B04800F02EFF01224FF40041AD4800F09A
:1009BC0028FF5AE100224FF40071AA4800F021FFF1
:1009CC0000224FF48061A74800F01BFF01224FF476
:1009DC000061A44800F015FF00224FF48051A1489B
:1009EC0000F00FFF00224FF400519E4800F009FF69
:1009FC0001224FF480419B4800F003FF00224FF48A
:100A0C000041984800F0FDFE2FE100224FF40071E8
:100A1C00944800F0F6FE00224FF48061914800F0FB
:100A2C00F0FE00224FF400618E4800F0EAFE002236
:100A3C004FF480518B4800F0E4FE01224FF400513A
:100A4C00884800F0DEFE01224FF48041854800F01A
:100A5C00D8FE00224FF40041824800F0D2FE04E19F
:100A6C0001224FF400717F4800F0CBFE00224FF4BE
:100A7C0080617C4800F0C5FE00224FF4006179488B
:100A8C0000F0BFFE01224FF48051764800F0B9FE11
:100A9C0001224FF40051734800F0B3FE00224FF4D2
:100AAC008041704800F0ADFE00224FF400416D48CB
:100ABC0000F0A7FED9E000224FF40071694800F065
:100ACC00A0FE01224FF48061664800F09AFE0022DD
:100ADC004FF40061634800F094FE00224FF4805103
:100AEC00604800F08EFE01224FF400515D4800F08A
:100AFC0088FE00224FF480415A4800F082FE00220A
:100B0C004FF40041574800F07CFEAEE000224FF459
:100B1C000071544800F075FE01224FF48061514879
:100B2C0000F06FFE00224FF400614E4800F069FEA9
:100B3C0000224FF480514B4800F063FE00224FF42A
:100B4C000051484800F05DFE00224FF480414548BA
:100B5C0000F057FE00224FF40041424800F051FED5
:100B6C0083E000224FF400713E4800F04AFE002260
:100B7C004FF480613B4800F044FE00224FF40061CA
:100B8C00384800F03EFE01224FF48051354800F009
:100B9C0038FE01224FF40051324800F032FE01229F
:100BAC004FF480412F4800F02CFE01224FF40041FD
:100BBC002C4800F026FE58E000224FF40071294822
:100BCC0000F01FFE00224FF48061264800F019FE51
:100BDC0000224FF40061234800F013FE00224FF472
:100BEC008051204800F00DFE00224FF400511D48AA
:100BFC0000F007FE00224FF480411A4800F001FE7D
:100C0C0000224FF40041174800F0FBFD2DE00022BC
:100C1C004FF40071134800F0F4FD00224FF4806192
:100C2C00104800F0EEFD00224FF400610D4800F07A
:100C3C00E8FD00224FF480510A4800F0E2FD012249
:100C4C004FF40051074800F0DCFD00224FF48041C6
:100C5C00044800F0D6FD00224FF40041014800F09A
:100C6C00D0FD02E0000C014000BF00BF0837BD46BC
:100C7C0080BD00BF80B483B000AF7860054A7B684C
:100C8C001360054B00221A6000BF0C37BD4680BCB8
:100C9C00704700BFDC000020D400002080B400AFFF
:100CAC00044B00221A60044B32221A6000BFBD466E
:100CBC0080BC7047D80000203000002080B400AF0A
:100CCC00084B1B68002B05DD064B1B68013B054AD6
:100CDC00136002E0044B01221A6000BFBD4680BCC9
:100CEC00704700BF30000020D800002080B400AF57
:100CFC00084B1B68002B05DD064B1B68013B054AA6
:100D0C00136002E0044B01221A6000BFBD4680BC98
:100D1C00704700BFDC000020D400002080B483B0FA
:100D2C0000AF0E4B9B690D4A43F0010393610B4BD3
:100D3C009B6903F001037B607B68084BDB69074A06
:100D4C0043F08053D361054BDB6903F080533B6068
:100D5C003B6800BF0C37BD4680BC7047001002409A
:100D6C0080B584B000AF78607B681B68B3F1804FAE
:100D7C0013D10C4BDB690B4A43F00103D361094BD4
:100D8C00DB6903F00103FB60FB68002200211C20DF
:100D9C0000F06DFB1C2000F086FB00BF1037BD4639
:100DAC0080BD00BF0010024080B400AFFEE780B4ED
:100DBC0000AFFEE780B400AFFEE780B400AFFEE703
:100DCC0080B400AFFEE780B400AF00BFBD4680BC6E
:100DDC00704780B400AF00BFBD4680BC704780B484
:100DEC0000AF00BFBD4680BC704780B500AF00F0BF
:100DFC004BFA00BF80BD000080B500AF024801F087
:100E0C0093F900BF80BD00BF8C00002080B400AF00
:100E1C0000BFBD4680BC704780B582B000AF786023
:100E2C0000224FF48071144800F0EBFC00220221E8
:100E3C00124800F0E6FC012280210F4800F0E1FC92
:100E4C00012201210D4800F0DCFC7868FFF712FF4D
:100E5C000B4B1B68184600F019F80A4B1B68184618
:100E6C0000F052F8FFF71AFF074B01221A6000BF7F
:100E7C000837BD4680BD00BF00080140000C014092
:100E8C003C000020E00000203400002080B582B03F
:100E9C0000AF78607B68002B16D07B68012B27D1C4
:100EAC0000220221144800F0ACFC0122042112485B
:100EBC0000F0A7FC012208210F4800F0A2FC0F4B08
:100ECC001B680F4A136013E0002210210A4800F03F
:100EDC0098FC01222021084800F093FC01224021BB
:100EEC00054800F08EFC054B1B68064A136000BFDA
:100EFC0000BF0837BD4680BD0008014040000020FF
:100F0C004C0000205000002080B582B000AF78600B
:100F1C007B68002B16D07B68012B27D10122022184
:100F2C00144800F06EFC01220421124800F069FC08
:100F3C00002208210F4800F064FC0F4B1B680F4A7D
:100F4C00136013E0012210210A4800F05AFC012220
:100F5C002021084800F055FC00224021054800F0F3
:100F6C0050FC054B1B68064A136000BF00BF0837D6
:100F7C00BD4680BD00080140480000204C00002008
:100F8C005000002080B582B000AF78607B68002BE9
:100F9C0016D07B68012B27D101220221144800F0C6
:100FAC0030FC00220421124800F02BFC0122082105
:100FBC000F4800F026FC0F4B1B680F4A136013E020
:100FCC00012210210A4800F01CFC002220210848B4
:100FDC0000F017FC01224021054800F012FC054BE3
:100FEC001B68064A136000BF00BF0837BD4680BDB2
:100FFC0000080140440000204C000020500000205C
:10100C0080B582B000AF78605F4B1B68012B40F05D
:10101C00B7805E4B1B681846FFF780FA5B4B1B686A
:10102C00013B5A4A13605A4B1B68032B1DD0032BF0
:10103C0049DC012B02D0022B2ED044E0534B1B6811
:10104C00002B0CD1534B1B68514A13604F4B03229E
:10105C001A60514B1B681846FFF756FF33E04E4B96
:10106C001B681846FFF712FF2DE0484B1B68002B3E
:10107C000CD14A4B1B68464A1360444B02221A603F
:10108C00454B1B681846FFF77DFF1CE0424B1B6865
:10109C001846FFF739FF16E03C4B1B68002B0CD1B0
:1010AC003F4B1B683A4A1360384B05221A603A4B87
:1010BC001B681846FFF7EAFE04E0374B1B6818461E
:1010CC00FFF760FF00BF374B1B681846FFF7FCFBB0
:1010DC00344B1B68013B334A1360334B1B68032BA7
:1010EC001DD0032B49DC012B02D0022B2ED044E067
:1010FC002C4B1B68002B0CD1264B1B682A4A136007
:10110C00284B03221A60294B1B681846FFF7FCFE7C
:10111C0033E0264B1B681846FFF7B8FE2DE0214B39
:10112C001B68002B0CD11D4B1B681F4A13601D4BF9
:10113C0002221A601D4B1B681846FFF723FF1CE0A8
:10114C001A4B1B681846FFF7DFFE16E0154B1B68A1
:10115C00002B0CD1124B1B68134A1360114B052248
:10116C001A60124B1B681846FFF790FE04E00F4BF9
:10117C001B681846FFF706FF00BF7868FFF77AFD7B
:10118C0000BF0837BD4680BDD400002054000020AD
:10119C004C000020480000203C00002044000020AF
:1011AC00400000205800002050000020E0000020EB
:1011BC00FFF72CFE0B480C490C4A002302E0D458D4
:1011CC00C4500433C4188C42F9D3094A094C002387
:1011DC0001E013600432A242FBD301F0F9FAFFF7ED
:1011EC0069F870470000002064000020682800089F
:1011FC0064000020E8000020FEE7000080B500AF8E
:10120C00084B1B68074A43F010031360032000F0DF
:10121C0023F90F2000F008F8FFF780FD0023184693
:10122C0080BD00BF0020024080B582B000AF786066
:10123C00124B1A68124B1B7819464FF47A73B3FB96
:10124C00F1F3B2FBF3F3184600F03BF90346002B25
:10125C0001D001230EE07B680F2B0AD8002279689D
:10126C004FF0FF3000F003F9064A7B68136000234F
:10127C0000E0012318460837BD4680BD3800002029
:10128C00600000205C00002080B400AF054B1B7890
:10129C001A46054B1B681344034A136000BFBD4636
:1012AC0080BC704760000020E400002080B400AFD8
:1012BC00024B1B681846BD4680BC7047E4000020FA
:1012CC0080B485B000AF78607B6803F00703FB60E7
:1012DC000C4BDB68BB60BA684FF6FF031340BB6076
:1012EC00FB681A02BB68134343F0BF6343F400333B
:1012FC00BB60044ABB68D36000BF1437BD4680BCDA
:10130C00704700BF00ED00E080B400AF044BDB6819
:10131C001B0A03F007031846BD4680BC704700BF8C
:10132C0000ED00E080B483B000AF0346FB7197F989
:10133C000730002B0BDBFB7903F01F02064997F9F2
:10134C0007305B09012000FA02F241F8232000BFAC
:10135C000C37BD4680BC704700E100E080B483B020
:10136C0000AF03463960FB7197F90730002B0ADB9D
:10137C003B68DAB20C4997F907301201D2B20B4430
:10138C0083F800230AE03B68DAB20849FB7903F0E2
:10139C000F03043B1201D2B20B441A7600BF0C3778
:1013AC00BD4680BC704700BF00E100E000ED00E0EE
:1013BC0080B489B000AFF860B9607A60FB6803F064
:1013CC000703FB61FB69C3F10703042B28BF04234C
:1013DC00BB61FB690433062B02D9FB69033B00E0BC
:1013EC0000237B614FF0FF32BB6902FA03F3DA434F
:1013FC00BB681A407B699A404FF0FF317B6901FA58
:10140C0003F3D9437B680B40134318462437BD467E
:10141C0080BC704780B582B000AF78607B68013BC0
:10142C00B3F1807F01D301230FE00A4A7B68013BB3
:10143C0053600F214FF0FF30FFF790FF054B002258
:10144C009A60044B07221A60002318460837BD46E1
:10145C0080BD00BF10E000E080B582B000AF7860C6
:10146C007868FFF72DFF00BF0837BD4680BD80B5FB
:10147C0086B000AF0346B9607A60FB7300237B61D2
:10148C00FFF742FF78617A68B9687869FFF790FFD7
:10149C00024697F90F3011461846FFF75FFF00BF61
:1014AC001837BD4680BD80B582B000AF0346FB71D6
:1014BC0097F907301846FFF735FF00BF0837BD46D0
:1014CC0080BD80B582B000AF78607868FFF7A2FF6E
:1014DC00034618460837BD4680BD000080B48BB06B
:1014EC0000AF7860396000237B6200233B6261E1CE
:1014FC0001227B6A02FA03F3FB613B681B68FA6901
:10150C001340BB61BA69FB699A4240F050813B6859
:10151C005B68974A93425ED0954A934275D8954A38
:10152C00934258D0934A93426FD8934A934252D0E5
:10153C00914A934269D8914A93424CD08F4A934234
:10154C0063D88F4A934246D08D4A93425DD8122B72
:10155C002AD8122B59D801A252F823F0E31500080F
:10156C00BD150008CF150008111600081716000845
:10157C00171600081716000817160008171600088B
:10158C00171600081716000817160008171600087B
:10159C00171600081716000817160008171600086B
:1015AC00C5150008D9150008764A934213D02CE0D3
:1015BC003B68DB683B6229E03B68DB6804333B62D9
:1015CC0024E03B68DB6808333B621FE03B68DB6868
:1015DC000C333B621AE03B689B68002B02D104235E
:1015EC003B6213E03B689B68012B05D108233B62EF
:1015FC007B68FA691A6109E008233B627B68FA6927
:10160C005A6103E000233B6200E000BFBB69FF2B83
:10161C0001D87B6801E07B6804337B61BB69FF2BDD
:10162C0002D87B6A9B0002E07B6A083B9B003B6113
:10163C007B691A680F213B6901FA03F3DB431A40FB
:10164C00396A3B6901FA03F31A437B691A603B68F8
:10165C005B6803F08053002B00F0A9804A4B9B6918
:10166C00494A43F001039361474B9B6903F0010323
:10167C00BB60BB68454A7B6A9B08023352F8233037
:10168C00FB607B6A03F003039B000F2202FA03F357
:10169C00DB43FA681340FB607B683D4A93420DD0F4
:1016AC007B683C4A934207D07B683B4A934201D10A
:1016BC00022304E0032302E0012300E000237A6A02
:1016CC0002F0030292009340FA681343FB602F4927
:1016DC007B6A9B080233FA6841F823203B685B68FD
:1016EC0003F48013002B06D02C4B9A682B49BB6952
:1016FC0013438B6006E0294B9A68BB69DB4327498F
:10170C0013408B603B685B6803F40013002B06D01E
:10171C00224BDA682149BB691343CB6006E01F4BAF
:10172C00DA68BB69DB431D491340CB603B685B68DF
:10173C0003F40033002B06D0184B5A681749BB69C9
:10174C0013434B6006E0154B5A68BB69DB431349E6
:10175C0013404B603B685B6803F48033002B1FD055
:10176C000E4B1A680D49BB6913430B601FE000BF99
:10177C000000321000003110000022100000211077
:10178C000000121000001110001002400000014077
:10179C0000080140000C0140001001400004014011
:1017AC000B4B1A68BB69DB43094913400B607B6A1E
:1017BC0001337B623B681A687B6A22FA03F3002BC5
:1017CC007FF496AE00BF00BF2C37BD4680BC70477F
:1017DC000004014080B485B000AF78600B467B807C
:1017EC007B689A687B881340002B02D00123FB7323
:1017FC0001E00023FB73FB7B18461437BD4680BC0D
:10180C00704780B483B000AF78600B467B80134682
:10181C007B707B78002B03D07A887B681A6103E09D
:10182C007B881A047B681A6100BF0C37BD4680BCEC
:10183C007047000080B586B000AF78607B68002BE5
:10184C0001D1012372E27B681B6803F00103002BBA
:10185C0000F08780924B5B6803F00C03042B0CD0D8
:10186C008F4B5B6803F00C03082B12D18C4B5B681D
:10187C0003F48033B3F5803F0BD1894B1B6803F421
:10188C000033002B6CD07B685B68002B68D1012384
:10189C004CE27B685B68B3F5803F06D1804B1B68DC
:1018AC007F4A43F4803313602EE07B685B68002B27
:1018BC000CD17B4B1B687A4A23F480331360784B32
:1018CC001B68774A23F4802313601DE07B685B68F8
:1018DC00B3F5A02F0CD1724B1B68714A43F48023D3
:1018EC0013606F4B1B686E4A43F4803313600BE03C
:1018FC006B4B1B686A4A23F480331360684B1B687C
:10190C00674A23F4802313607B685B68002B13D039
:10191C00FFF7CCFC386108E0FFF7C8FC02463B69D6
:10192C00D31A642B01D9032300E25D4B1B6803F42B
:10193C000033002BF0D014E0FFF7B8FC386108E05E
:10194C00FFF7B4FC02463B69D31A642B01D903237D
:10195C00ECE1534B1B6803F40033002BF0D100E097
:10196C0000BF7B681B6803F00203002B63D04C4B59
:10197C005B6803F00C03002B0BD0494B5B6803F046
:10198C000C03082B1CD1464B5B6803F48033002BF3
:10199C0016D1434B1B6803F00203002B05D07B6868
:1019AC001B69012B01D00123C0E13D4B1B6823F0C7
:1019BC00F8027B685B69DB00394913430B603AE042
:1019CC007B681B69002B20D0364B01221A60FFF775
:1019DC006DFC386108E0FFF769FC02463B69D31ADD
:1019EC00022B01D90323A1E12D4B1B6803F0020349
:1019FC00002BF0D02A4B1B6823F0F8027B685B6944
:101A0C00DB00274913430B6015E0264B00221A60BC
:101A1C00FFF74CFC386108E0FFF748FC02463B69D5
:101A2C00D31A022B01D9032380E11D4B1B6803F051
:101A3C000203002BF0D17B681B6803F00803002B1A
:101A4C003AD07B689B69002B19D0174B01221A6086
:101A5C00FFF72CFC386108E0FFF728FC02463B69D5
:101A6C00D31A022B01D9032360E10D4B5B6A03F0FF
:101A7C000203002BF0D0012000F09CFA1CE00A4B72
:101A8C0000221A60FFF712FC38610FE0FFF70EFC22
:101A9C0002463B69D31A022B08D9032346E100BF47
:101AAC00001002400000424280044242924B5B6AAA
:101ABC0003F00203002BE9D17B681B6803F00403DD
:101ACC00002B00F0A6800023FB758B4BDB6903F029
:101ADC008053002B0DD1884BDB69874A43F0805330
:101AEC00D361854BDB6903F08053BB60BB6801237A
:101AFC00FB75824B1B6803F48073002B18D17F4B52
:101B0C001B687E4A43F480731360FFF7CFFB386188
:101B1C0008E0FFF7CBFB02463B69D31A642B01D9D3
:101B2C00032303E1754B1B6803F48073002BF0D087
:101B3C007B68DB68012B06D16F4B1B6A6E4A43F046
:101B4C00010313622DE07B68DB68002B0CD16A4B20
:101B5C001B6A694A23F001031362674B1B6A664ACE
:101B6C0023F0040313621CE07B68DB68052B0CD1AB
:101B7C00614B1B6A604A43F0040313625E4B1B6AA1
:101B8C005D4A43F0010313620BE05B4B1B6A5A4A3C
:101B9C0023F001031362584B1B6A574A23F00403CA
:101BAC0013627B68DB68002B15D0FFF77FFB386175
:101BBC000AE0FFF77BFB02463B69D31A41F28832FD
:101BCC00934201D90323B1E04B4B1B6A03F0020390
:101BDC00002BEED014E0FFF769FB38610AE0FFF749
:101BEC0065FB02463B69D31A41F28832934201D914
:101BFC0003239BE0404B1B6A03F00203002BEED146
:101C0C00FB7D012B05D13C4BDB693B4A23F0805318
:101C1C00D3617B68DB69002B00F08780364B5B68F7
:101C2C0003F00C03082B61D07B68DB69022B46D1D7
:101C3C00334B00221A60FFF739FB386108E0FFF7DD
:101C4C0035FB02463B69D31A022B01D903236DE005
:101C5C00294B1B6803F00073002BF0D17B681B6AC7
:101C6C00B3F5803F08D1244B5B6823F400327B68CA
:101C7C009B68214913434B601F4B5B6823F4741220
:101C8C007B68196A7B685B6A0B431B4913434B6087
:101C9C001B4B01221A60FFF709FB386108E0FFF7C4
:101CAC0005FB02463B69D31A022B01D903233DE005
:101CBC00114B1B6803F00073002BF0D035E0104B78
:101CCC0000221A60FFF7F2FA386108E0FFF7EEFA2B
:101CDC0002463B69D31A022B01D9032326E0064B9B
:101CEC001B6803F00073002BF0D11EE07B68DB69EE
:101CFC00012B07D1012319E00010024000700040B5
:101D0C00600042420B4B5B68FB60FB6803F4803263
:101D1C007B681B6A9A4206D1FB6803F470127B68DD
:101D2C005B6A9A4201D0012300E000231846183761
:101D3C00BD4680BD0010024080B584B000AF786015
:101D4C0039607B68002B01D10123D0E06A4B1B6802
:101D5C0003F007033A689A4210D9674B1B6823F0CB
:101D6C00070265493B6813430B60634B1B6803F028
:101D7C0007033A689A4201D00123B8E07B681B68DC
:101D8C0003F00203002B20D07B681B6803F00403D4
:101D9C00002B05D0594B5B68584A43F4E063536001
:101DAC007B681B6803F00803002B05D0534B5B6862
:101DBC00524A43F460535360504B5B6823F0F0027B
:101DCC007B689B684D4913434B607B681B6803F031
:101DDC000103002B40D07B685B68012B07D1474B7C
:101DEC001B6803F40033002B15D101237FE07B68C3
:101DFC005B68022B07D1414B1B6803F00073002B6F
:101E0C0009D1012373E03D4B1B6803F00203002B47
:101E1C0001D101236BE0394B5B6823F003027B6833
:101E2C005B68364913434B60FFF740FAF8600AE0F1
:101E3C00FFF73CFA0246FB68D31A41F28832934210
:101E4C0001D9032353E02D4B5B6803F00C027B6834
:101E5C005B689B009A42EBD1274B1B6803F007038E
:101E6C003A689A4210D2244B1B6823F0070222498D
:101E7C003B6813430B60204B1B6803F007033A6865
:101E8C009A4201D0012332E07B681B6803F0040303
:101E9C00002B08D0194B5B6823F4E0627B68DB688D
:101EAC00164913434B607B681B6803F00803002B37
:101EBC0009D0124B5B6823F460527B681B69DB0012
:101ECC000E4913434B6000F021F802460B4B5B6844
:101EDC001B0903F00F030A49CB5C22FA03F3094AEE
:101EEC001360094B1B681846FFF79EF90023184630
:101EFC001037BD4680BD00BF0020024000100240DC
:101F0C003C280008380000205C00002080B487B01A
:101F1C0000AF0023FB600023BB6000237B61002328
:101F2C007B6000233B611E4B5B68FB60FB6803F02E
:101F3C000C03042B02D0082B03D027E0194B3B6178
:101F4C0027E0FB689B0C03F00F03174AD35C7B6004
:101F5C00FB6803F48033002B10D0114B5B685B0CD7
:101F6C0003F00103114AD35CBB607B680D4A03FB91
:101F7C0002F2BB68B2FBF3F37B6104E07B680C4AB2
:101F8C0002FB03F37B617B693B6102E0054B3B6128
:101F9C0000BF3B6918461C37BD4680BC704700BF6C
:101FAC000010024000127A004C2800085C2800083F
:101FBC0000093D0080B485B000AF78600A4B1B6807
:101FCC000A4AA2FB03235B0A7A6802FB03F3FB6059
:101FDC0000BFFB685A1EFA60002BF9D100BF00BF8E
:101FEC001437BD4680BC704738000020D34D6210BA
:101FFC0080B582B000AF78607B68002B01D10123E3
:10200C0041E07B6893F83D30DBB2002B06D17B6856
:10201C00002283F83C207868FEF7A2FE7B6802223F
:10202C0083F83D207B681A687B6804331946104698
:10203C0000F06EFA7B68012283F846207B6801224F
:10204C0083F83E207B68012283F83F207B680122C5
:10205C0083F840207B68012283F841207B680122B1
:10206C0083F842207B68012283F843207B6801229D
:10207C0083F844207B68012283F845207B68012289
:10208C0083F83D20002318460837BD4680BD00006C
:10209C0080B485B000AF78607B6893F83D30DBB2DC
:1020AC00012B01D0012335E07B68022283F83D200F
:1020BC007B681B68DA687B681B6842F00102DA6097
:1020CC007B681B68164A934209D07B681B68B3F186
:1020DC00804F04D07B681B68124A934211D17B68F5
:1020EC001B689B6803F00703FB60FB68062B10D092
:1020FC007B681B681A687B681B6842F001021A60D7
:10210C0007E07B681B681A687B681B6842F0010259
:10211C001A60002318461437BD4680BC704700BFB8
:10212C00002C01400004004080B582B000AF786004
:10213C007B681B681B6903F00203022B22D17B68AE
:10214C001B68DB6803F00203022B1BD17B681B6846
:10215C006FF002021A617B6801221A777B681B6898
:10216C009B6903F00303002B03D0786800F0B4F9EB
:10217C0005E0786800F0A7F9786800F0B6F97B689C
:10218C0000221A777B681B681B6903F00403042B7D
:10219C0022D17B681B68DB6803F00403042B1BD182
:1021AC007B681B686FF004021A617B6802221A7745
:1021BC007B681B689B6903F44073002B03D0786821
:1021CC0000F08AF905E0786800F07DF9786800F095
:1021DC008CF97B6800221A777B681B681B6903F0FB
:1021EC000803082B22D17B681B68DB6803F008030B
:1021FC00082B1BD17B681B686FF008021A617B6887
:10220C0004221A777B681B68DB6903F00303002B3D
:10221C0003D0786800F060F905E0786800F053F9B5
:10222C00786800F062F97B6800221A777B681B687B
:10223C001B6903F01003102B22D17B681B68DB6831
:10224C0003F01003102B1BD17B681B686FF010027E
:10225C001A617B6808221A777B681B68DB6903F4B8
:10226C004073002B03D0786800F036F905E07868ED
:10227C0000F029F9786800F038F97B6800221A77A9
:10228C007B681B681B6903F00103012B0ED17B6873
:10229C001B68DB6803F00103012B07D17B681B680B
:1022AC006FF001021A617868FEF720F97B681B68F1
:1022BC001B6903F08003802B0ED17B681B68DB68E5
:1022CC0003F08003802B07D17B681B686FF08002C2
:1022DC001A61786800F06BFA7B681B681B6903F065
:1022EC004003402B0ED17B681B68DB6803F0400376
:1022FC00402B07D17B681B686FF040021A6178682D
:10230C0000F0FCF87B681B681B6903F02003202B92
:10231C000ED17B681B68DB6803F02003202B07D1F0
:10232C007B681B686FF020021A61786800F036FA3F
:10233C0000BF0837BD4680BD80B584B000AF786063
:10234C0039600023FB737B6893F83C30012B01D17F
:10235C000223B4E07B68012283F83C207B680222D4
:10236C0083F83D207B681B689B68BB60BB6823F0CF
:10237C007703BB60BB6823F47F43BB607B681B683F
:10238C00BA689A603B681B68B3F5005F3ED0B3F542
:10239C00005F00F28780B3F5805F00F08680B3F5B4
:1023AC00805F7FD8702B1AD0702B7BD8602B50D0CD
:1023BC00602B77D8502B3CD0502B73D8402B58D057
:1023CC00402B6FD8302B64D0302B6BD8202B60D0A7
:1023DC00202B67D8002B5CD0102B5AD062E07B6886
:1023EC0018683B6899683B685A683B68DB6800F082
:1023FC005EF97B681B689B68BB60BB6843F0770326
:10240C00BB607B681B68BA689A604FE07B68186891
:10241C003B6899683B685A683B68DB6800F047F991
:10242C007B681B689A687B681B6842F480429A60E0
:10243C003CE07B6818683B6859683B68DB681A4667
:10244C0000F0BEF87B681B685021184600F015F9A7
:10245C002CE07B6818683B6859683B68DB681A4657
:10246C0000F0DCF87B681B686021184600F005F969
:10247C001CE07B6818683B6859683B68DB681A4647
:10248C0000F09EF87B681B684021184600F0F5F8B8
:10249C000CE07B681A683B681B681946104600F014
:1024AC00ECF803E00123FB7300E000BF7B68012222
:1024BC0083F83D207B68002283F83C20FB7B184688
:1024CC001037BD4680BD80B483B000AF786000BFCC
:1024DC000C37BD4680BC704780B483B000AF7860C9
:1024EC0000BF0C37BD4680BC704780B483B000AFD2
:1024FC00786000BF0C37BD4680BC704780B483B099
:10250C0000AF786000BF0C37BD4680BC7047000040
:10251C0080B485B000AF786039607B681B68FB6065
:10252C007B68254A934207D07B68B3F1804F03D078
:10253C007B68224A934208D1FB6823F07003FB604E
:10254C003B685B68FA681343FB607B681A4A9342EA
:10255C0007D07B68B3F1804F03D07B68174A934256
:10256C0008D1FB6823F44073FB603B68DB68FA68B6
:10257C001343FB60FB6823F080023B685B691343E9
:10258C00FB607B68FA681A603B689A687B68DA6261
:10259C003B681A687B689A627B68074A934203D14E
:1025AC003B681A697B681A637B6801225A6100BF19
:1025BC001437BD4680BC7047002C0140000400401D
:1025CC0080B487B000AFF860B9607A60FB681B6AB2
:1025DC007B61FB681B6A23F00102FB681A62FB68D3
:1025EC009B693B613B6923F0F0033B617B681B01FA
:1025FC003A6913433B617B6923F00A037B617A6977
:10260C00BB6813437B61FB683A699A61FB687A6922
:10261C001A6200BF1C37BD4680BC704780B487B0BF
:10262C0000AFF860B9607A60FB681B6A7B61FB687D
:10263C001B6A23F01002FB681A62FB689B693B6102
:10264C003B6923F470433B617B681B033A6913437A
:10265C003B617B6923F0A0037B61BB681B017A693A
:10266C0013437B61FB683A699A61FB687A691A6269
:10267C0000BF1C37BD4680BC704780B485B000AF2E
:10268C00786039607B689B68FB60FB6823F07003A3
:10269C00FB603A68FB68134343F00703FB607B68FD
:1026AC00FA689A6000BF1437BD4680BC704780B48E
:1026BC0087B000AFF860B9607A603B60FB689B68DC
:1026CC007B617B6923F47F437B613B681A027B68E7
:1026DC001A43BB6813437A6913437B61FB687A69BD
:1026EC009A6000BF1C37BD4680BC704780B485B073
:1026FC0000AF786039607B6893F83C30012B01D1D6
:10270C00022341E07B68012283F83C207B68022293
:10271C0083F83D207B681B685B68FB607B681B68EB
:10272C009B68BB60FB6823F07003FB603B681B6815
:10273C00FA681343FB607B681B68FA685A607B6815
:10274C001B68144A934209D07B681B68B3F1804F15
:10275C0004D07B681B68104A93420CD1BB6823F0F1
:10276C008003BB603B685B68BA681343BB607B68E3
:10277C001B68BA689A607B68012283F83D207B68ED
:10278C00002283F83C20002318461437BD4680BC39
:10279C00704700BF002C01400004004080B483B09F
:1027AC0000AF786000BF0C37BD4680BC704780B46A
:1027BC0083B000AF786000BF0C37BD4680BC70475B
:1027CC0003460244934200D1704703F8011BF9E71A
:1027DC0070B500260C4D0D4C641BA410A64209D1FB
:1027EC0000F01AF800260A4D0A4C641BA410A642ED
:1027FC0005D170BD55F8043B98470136EEE755F806
:10280C00043B98470136F2E760280008602800086E
:10281C006028000864280008F8B500BFF8BC08BCA4
:10282C009E467047F8B500BFF8BC08BC9E46704782
:10283C000000000000000000010203040607080964
:10284C0002030405060708090A0B0C0D0E0F1010E5
:04285C000102000075
:04286000310100083A
:042864000D0100085A
:10286800010000000100000001000000010000005C
:10287800010000000100000001000000010000004C
:10288800010000000100000001000000010000003C
:1028980032000000010000000024F40001000000E4
:1028A8000100000002000000030000000100000019
:1028B80003000000050000000300000010000000F5
:0428C800010000000B
:04000005080011BD21
:00000001FF
