:020000040800F2
:1000000000280020D11600086116000867160008B5
:100010006D1600087316000879160008000000002D
:100020000000000000000000000000007F16000833
:100030008B1600080000000097160008A3160008A1
:1000400019170008191700081917000819170008D0
:1000500019170008191700081917000819170008C0
:1000600019170008191700081917000819170008B0
:1000700019170008191700081917000819170008A0
:100080001917000819170008191700081917000890
:100090001917000819170008191700081917000880
:1000A0001917000819170008191700081917000870
:1000B000B116000819170008000000001917000801
:1000C00019170008000000000000000019170008C0
:1000D00000000000191700081917000800000000B0
:1000E0001917000819170008191700080000000068
:1000F0000000000000000000000000000000000000
:0C01000000000000000000005FF808F1A3
:10010C0010B5054C237833B9044B13B10448AFF345
:10011C0000800123237010BD60000020000000004F
:10012C00382D000808B5034B1BB103490348AFF346
:10013C00008008BD0000000064000020382D00087D
:10014C0080B400AF064B1B68012B04D1044B00227A
:10015C001A60012300E000231846BD4680BC70479E
:10016C007C00002080B400AF064B1B68012B04D12F
:10017C00044B00221A60012300E000231846BD4600
:10018C0080BC70478000002080B400AF064B1B6819
:10019C00012B04D1044B00221A60012300E0002340
:1001AC001846BD4680BC70478400002080B500AF67
:1001BC00174B1B68174A1360174B1B68144A1360C4
:1001CC008021164801F090FD03461A46124B1A6026
:1001DC000F4B1A68104B1B689A4216D10C4B1A68BD
:1001EC000C4B1B689A4210D10A4B1A680C4B1B68BB
:1001FC009A420AD0074B1B68094A1360084B1B68CC
:10020C00002B02D1074B01221A6000BF80BD00BF3A
:10021C000C00002018000020000000200008014005
:10022C00240000207C00002080B500AF174B5B68D9
:10023C00174A5360174B5B68144A53604FF4807134
:10024C00154801F051FD03461A46124B5A600F4BEC
:10025C005A68104B5B689A4216D10C4B5A680C4B7F
:10026C005B689A4210D10A4B5A680C4B5B689A42F5
:10027C000AD0074B5B68094A5360084B5B68002B3C
:10028C0002D1074B01221A6000BF80BD0C00002078
:10029C00180000200000002000080140240000206D
:1002AC008000002080B500AF174B9B68174A936005
:1002BC00174B9B68144A93604FF40071154801F07A
:1002CC0013FD03461A46124B9A600F4B9A68104B5B
:1002DC009B689A4216D10C4B9A680C4B9B689A42BD
:1002EC0010D10A4B9A680C4B9B689A420AD0074B68
:1002FC009B68094A9360084B9B68002B02D1074B03
:10030C0001221A6000BF80BD0C00002018000020E4
:10031C000000002000080140240000208400002080
:10032C0080B500AFB54B1B68032B00F2EA8001A22D
:10033C0052F823F0510300089F0300081B04000827
:10034C0095040008AD4B01221A60AD4B1B68AD4AF9
:10035C0082FB03129210DB17D31AAB4A1360A84B23
:10036C001968A84B83FB01239A10CB17D21A13469A
:10037C009B0013445B00CA1A531CA34A5360A04B46
:10038C001B684FF47A7202FB03F3184601F000F875
:10039C00BEE000224FF480619C4801F0BCFC0122BD
:1003AC004FF40061994801F0B6FC01224FF48051E2
:1003BC00964801F0B0FC964B1B68012B40F0A380D3
:1003CC008E4B02221A60934B1B688E4A82FB0312DF
:1003DC009210DB17D31A8C4A13608E4B1968894B19
:1003EC0083FB01239A10CB17D21A13469B0013449C
:1003FC005B00CA1A531C844A5360864B1B684FF42B
:10040C007A7202FB03F3184600F0C2FF7BE0012274
:10041C004FF480617D4801F07EFC00224FF40061B6
:10042C007A4801F078FC01224FF48051774801F0B2
:10043C0072FC774B1B68012B67D1704B03221A603F
:10044C00754B1B686F4A82FB03129210DB17D31A91
:10045C006D4A1360704B19686A4B83FB01239A1029
:10046C00CB17D21A13469B0013445B00CA1A531CB9
:10047C00654A5360684B1B684FF47A7202FB03F3B6
:10048C00184600F085FF40E001224FF480615F4880
:10049C0001F041FC01224FF400615C4801F03BFC8F
:1004AC0000224FF48051594801F035FC584B1B6821
:1004BC00012B2CD1514B01221A60514B1B68514A14
:1004CC0082FB03129210DB17D31A4F4A13604C4B6A
:1004DC0019684C4B83FB01239A10CB17D21A134685
:1004EC009B0013445B00CA1A531C474A5360444B8D
:1004FC001B684FF47A7202FB03F3184600F048FFB6
:10050C0005E000BF04E000BF02E000BF00E000BF58
:10051C00424B1B68032B00F2FF8001A252F823F020
:10052C003D0500088B05000831060008AB060008E5
:10053C003A4B02221A60374B1B68324A82FB031279
:10054C009210DB17D31A304A9360324B19682D4B3B
:10055C0083FB01239A10CB17D21A13469B0013442A
:10056C005B00CA1A531C284AD3602A4B1B684FF4F1
:10057C007A7202FB03F3184600F03EFFD3E0002230
:10058C004FF40051214801F0C6FB01224FF4804189
:10059C001E4801F0C0FB01224FF400411B4801F042
:1005AC00BAFB1F4B1B68012B40F0B8801B4B02227F
:1005BC001A60184B1B68134A82FB03129210DB174C
:1005CC00D31A114A9360134B19680E4B83FB01230A
:1005DC009A10CB17D21A13469B0013445B00CA1A0D
:1005EC00531C094AD3600B4B1B684FF47A7202FB05
:1005FC0003F3184600F000FF90E000BF88000020D5
:10060C0038000020676666669400002000080140F0
:10061C00F8000020400000203C0000208C0000204E
:10062C000801002001224FF400515C4801F073FBDB
:10063C0000224FF48041594801F06DFB01224FF428
:10064C000041564801F067FB554B1B68012B67D1E5
:10065C00544B03221A60544B1B68544A82FB0312FE
:10066C009210DB17D31A524A93604F4B19684F4BB9
:10067C0083FB01239A10CB17D21A13469B00134409
:10068C005B00CA1A531C4A4AD360474B1B684FF491
:10069C007A7202FB03F3184600F0AEFE40E0012232
:1006AC004FF400513D4801F036FB01224FF48041DC
:1006BC003A4801F030FB00224FF40041374801F07A
:1006CC002AFB374B1B68012B2CD1364B01221A60AD
:1006DC00384B1B68354A82FB03129210DB17D31A76
:1006EC00334A9360334B1968304B83FB01239A10C8
:1006FC00CB17D21A13469B0013445B00CA1A531C27
:10070C002B4AD3602B4B1B684FF47A7202FB03F31A
:10071C00184600F071FE05E000BF04E000BF02E0E7
:10072C0000BF00E000BF244B1B68012B33D1204BD2
:10073C005B68013B1E4A53601D4BDB68013B1C4A46
:10074C00D3601B4B5B68002B0EDA194B1B68013B0B
:10075C00174A1360164B09225A60154B1B68002B65
:10076C0002DA134B00221A60114BDB68002B0EDAF5
:10077C000F4B9B68013B0E4A93600D4B0922DA60CC
:10078C000B4B9B68002B02DA094B00229A604FF44A
:10079C007A7000F04BFE00BF80BD00BF0008014026
:1007AC00080100208C0000203C0000206766666673
:1007BC0094000020380000201001002080B500AF0C
:1007CC00294B1B68012B32D1284B1B68DBB21A4614
:1007DC004FF48061264801F09EFA244B1B68DBB273
:1007EC001A464FF40051224801F095FA01224FF4B9
:1007FC0000611F4801F08FFA01224FF480411C4820
:10080C0001F089FA01224FF48051194801F083FA62
:10081C0001224FF40041164801F07DFA134B1B687E
:10082C00C3F10103114A1360FA2000F019FEFFF71F
:10083C0099FC0346012B0BD10E4B1B6801330D4A5F
:10084C0013600C4B1B68632B02DD0A4B00221A60F1
:10085C00FFF79AFC0346012B03D1064B1B68064A93
:10086C00136000BF80BD00BF1801002034000020C1
:10087C0000080140440000203800002080B500AF83
:10088C00294B1B68012B32D1284B1B68DBB21A4653
:10089C004FF40061264801F03EFA244B1B68DBB292
:1008AC001A464FF48041224801F035FA01224FF4E8
:1008BC0080611F4801F02FFA01224FF400511C48AF
:1008CC0001F029FA01224FF48051194801F023FA62
:1008DC0001224FF40041164801F01DFA134B1B681E
:1008EC00C3F10103114A1360FA2000F0B9FDFFF7C0
:1008FC0039FC0346012B0BD10E4B1B6801330D4AFF
:10090C0013600C4B1B68632B02DD0A4B00221A6030
:10091C00FFF73AFC0346012B03D1064B1B68064A32
:10092C00136000BF80BD00BF180100203400002000
:10093C00000801404C0000204000002080B500AFB2
:10094C00294B1B68012B32D1284B1B68DBB21A4692
:10095C004FF48051264801F0DEF9244B1B68DBB2C2
:10096C001A464FF40041224801F0D5F901224FF408
:10097C0080611F4801F0CFF901224FF400511C484F
:10098C0001F0C9F901224FF40061194801F0C3F9D3
:10099C0001224FF48041164801F0BDF9134B1B683E
:1009AC00C3F10103114A1360FA2000F059FDFFF75F
:1009BC00D9FB0346012B0BD10E4B1B6801330D4A9F
:1009CC0013600C4B1B68632B02DD0A4B00221A6070
:1009DC00FFF7DAFB0346012B03D1064B1B68064AD3
:1009EC00136000BF80BD00BF180100203400002040
:1009FC0000080140480000203C00002080B500AFFA
:100A0C00914B1B68042B00F2148101A252F823F0C5
:100A1C00310A00083F0A0008990A0008390B00083F
:100A2C00D70B0008884B01221A60884B00221A60F1
:100A3C0008E1FFF775FCFFF783FB0346012B40F041
:100A4C00FA80814B02221A60FFF7B8FE804B1B68BC
:100A5C00804A82FB03129210DB17D31A7E4A136072
:100A6C007B4B19687B4B83FB01239A10CB17D21A53
:100A7C0013469B0013445B00CA1A774B5A60764BA3
:100A8C0000229A60744B0222DA60D4E0FFF796FEE3
:100A9C006F4B1B686F4A82FB03129210DB17D31A41
:100AAC006D4A13606A4B19686A4B83FB01239A10D9
:100ABC00CB17D21A13469B0013445B00CA1A664B21
:100ACC005A60654B00229A60634B0222DA60FFF792
:100ADC0037FB0346012B40F0B080604B1B685C4A2F
:100AEC001360594B03221A60FFF7C8FE5C4B1B685E
:100AFC00584A82FB03129210DB17D31A564A136022
:100B0C00574B1968534B83FB01239A10CB17D21AFE
:100B1C0013469B0013445B00CA1A4F4B5A604E4B52
:100B2C0000229A604C4B0322DA6086E0FFF7A6FEA7
:100B3C004B4B1B68474A82FB03129210DB17D31AEC
:100B4C00454A1360464B1968424B83FB01239A10AC
:100B5C00CB17D21A13469B0013445B00CA1A3E4BA8
:100B6C005A603D4B00229A603B4B0322DA60FFF740
:100B7C00E7FA0346012B62D13A4B1B68384A1360E3
:100B8C00314B04221A60FFF7D9FE374B1B68314AF0
:100B9C0082FB03129210DB17D31A2F4A1360324BCD
:100BAC0019682C4B83FB01239A10CB17D21A1346CE
:100BBC009B0013445B00CA1A274B5A60264B002239
:100BCC009A60254B0422DA6039E0FFF7B7FE264B1A
:100BDC001B68204A82FB03129210DB17D31A1E4AA1
:100BEC001360214B19681B4B83FB01239A10CB1705
:100BFC00D21A13469B0013445B00CA1A164B5A6058
:100C0C00154B00229A60144B0422DA60FFF798FA15
:100C1C000346012B15D1154B1B68134A13600A4B65
:100C2C0001221A60094B00221A60114B00221A6033
:100C3C0007E000BF06E000BF04E000BF02E000BF19
:100C4C0000E000BF00BF80BD9000002088000020A5
:100C5C00440000206766666694000020380000207F
:100C6C004C00002040000020480000203C000020E8
:100C7C008C00002080B500AF00F04AFD00F010F8A9
:100C8C0000F096F800F048F8044801F08BFC00F0F6
:100C9C007FFCFFF7B3FE00F095FAFAE7A400002002
:100CAC0080B590B000AF07F1180328220021184638
:100CBC0002F010F83B1D00221A605A609A60DA604C
:100CCC001A610223BB610123BB621023FB62002368
:100CDC007B6307F11803184601F036F80346002B26
:100CEC0001D000F0D9F80F237B600023BB600023F8
:100CFC00FB6000233B6100237B613B1D00211846F8
:100D0C0001F0A4FA0346002B01D000F0C5F800BF97
:100D1C004037BD4680BD000080B586B000AF07F1FE
:100D2C00080300221A605A609A60DA603B4600227F
:100D3C001A605A601D4B4FF080421A601B4B41F6F3
:100D4C003F725A60194B00229A60184B0922DA60E4
:100D5C00164B00221A61154B00229A61134801F0C0
:100D6C00D1FB0346002B01D000F096F84FF48053D2
:100D7C00BB6007F1080319460C4801F067FD0346F8
:100D8C00002B01D000F088F800233B6000237B602F
:100D9C003B461946054801F033FF0346002B01D0B2
:100DAC0000F07AF800BF1837BD4680BDA4000020C3
:100DBC0080B586B000AF07F1080300221A605A60B4
:100DCC009A60DA60294B9B69284A43F004039361CB
:100DDC00264B9B6903F004037B607B68234B9B6968
:100DEC00224A43F008039361204B9B6903F00803EC
:100DFC003B603B6800224FF670411D4800F08BFFB2
:100E0C00002240F2FF111B4800F085FF4FF67043A3
:100E1C00BB600123FB6000233B6102237B6107F174
:100E2C0008031946124800F0E3FD4FF46073BB60F1
:100E3C000023FB6001233B6107F1080319460C48B2
:100E4C0000F0D6FD40F2FF13BB600123FB600023D2
:100E5C003B6102237B6107F108031946054800F04A
:100E6C00C7FD00BF1837BD4680BD00BF0010024053
:100E7C0000080140000C014080B582B000AF7860E2
:100E8C0000F008FBFFF792F9FFF7CEF9FFF70AFA2B
:100E9C0000BF0837BD4680BD80B400AF72B600BF3E
:100EAC00FEE7000080B582B000AF78607B68092B4C
:100EBC0000F2808101A252F823F000BFF10E00086D
:100ECC00390F0008810F0008C90F00081110000825
:100EDC0059100008A1100008E91000083111000891
:100EEC007911000800220121B54800F014FF0022FE
:100EFC000221B34800F00FFF00220421B04800F09B
:100F0C000AFF00220821AE4800F005FF0022102144
:100F1C00AB4800F000FF00222021A94800F0FBFEA6
:100F2C0001224021A64800F0F6FE44E101220121F5
:100F3C00A34800F0F0FE00220221A14800F0EBFED5
:100F4C00002204219E4800F0E6FE012208219C4864
:100F5C0000F0E1FE01221021994800F0DCFE012294
:100F6C002021974800F0D7FE01224021944800F040
:100F7C00D2FE20E100220121914800F0CCFE00229B
:100F8C0002218F4800F0C7FE012204218C4800F09A
:100F9C00C2FE002208218A4800F0BDFE002210216A
:100FAC00874800F0B8FE01222021854800F0B3FEEE
:100FBC0000224021824800F0AEFEFCE0002201211C
:100FCC007F4800F0A8FE002202217D4800F0A3FE1D
:100FDC00002204217A4800F09EFE00220821784865
:100FEC0000F099FE01221021754800F094FE0122B8
:100FFC002021734800F08FFE00224021704800F041
:10100C008AFED8E0012201216D4800F084FE002206
:10101C0002216B4800F07FFE00220421684800F09A
:10102C007AFE01220821664800F075FE012210218B
:10103C00634800F070FE00222021614800F06BFE36
:10104C00002240215E4800F066FEB4E0002201213F
:10105C005B4800F060FE01220221594800F05BFE63
:10106C0000220421564800F056FE00220821544864
:10107C0000F051FE01221021514800F04CFE0022DC
:10108C0020214F4800F047FE002240214C4800F040
:10109C0042FE90E000220121494800F03CFE012272
:1010AC000221474800F037FE00220421444800F09A
:1010BC0032FE00220821424800F02DFE00221021B1
:1010CC003F4800F028FE002220213D4800F023FE7E
:1010DC00002240213A4800F01EFE6CE00022012163
:1010EC00374800F018FE00220221354800F013FEAC
:1010FC0000220421324800F00EFE01220821304863
:10110C0000F009FE012210212D4800F004FE0122FE
:10111C0020212B4800F0FFFD01224021284800F03F
:10112C00FAFD48E000220121254800F0F4FD0022E0
:10113C000221234800F0EFFD00220421204800F09A
:10114C00EAFD002208211E4800F0E5FD00221021D6
:10115C001B4800F0E0FD00222021194800F0DBFDC7
:10116C0000224021164800F0D6FD24E00022012187
:10117C00134800F0D0FD00220221114800F0CBFDF5
:10118C00002204210E4800F0C6FD002208210C4864
:10119C0000F0C1FD01221021094800F0BCFD002225
:1011AC002021074800F0B7FD00224021044800F040
:1011BC00B2FD00E000BF00BF0837BD4680BD00BFD8
:1011CC00000C014080B500AF584B1B68013B032B52
:1011DC0000F2A08001A252F823F000BFF911000820
:1011EC00431200088D120008D712000800221021AB
:1011FC004F4800F090FD012240214D4800F08BFD3E
:10120C00012280214B4800F086FD01224FF48071B1
:10121C00484800F080FD484B1B681846FFF742FE1B
:10122C00464B1B68012B77D1404B02221A60FA20E7
:10123C0000F0C8F870E0012210213D4800F06BFD71
:10124C00002240213A4800F066FD012280213948F5
:10125C0000F061FD01224FF48071364800F05BFD17
:10126C00354B5B681846FFF71DFE344B1B68012B92
:10127C0054D12E4B03221A60FA2000F0A3F84DE053
:10128C00012210212A4800F046FD01224021284865
:10129C0000F041FD00228021264800F03CFD012297
:1012AC004FF48071234800F036FD234B9B681846A1
:1012BC00FFF7F8FD214B1B68012B31D11B4B04228E
:1012CC001A60FA2000F07EF82AE00122102118485A
:1012DC0000F021FD01224021154800F01CFD0122E7
:1012EC008021144800F017FD00224FF48071114842
:1012FC0000F011FD104BDB681846FFF7D3FD0F4BC8
:10130C001B68012B0ED1094B01221A60FA2000F048
:10131C0059F807E000BF06E000BF04E000BF02E0A0
:10132C0000BF00E000BF00BF80BD00BF3000002048
:10133C0000080140000C0140940000200001002036
:10134C0080B483B000AF7860034A7B68136000BF41
:10135C000C37BD4680BC70475000002080B483B071
:10136C0000AF7860074B1B687A6892FBF3F3064A70
:10137C001360064B00221A6000BF0C37BD4680BCC0
:10138C00704700BF50000020EC000020F00000204F
:10139C0080B483B000AF7860074B1B687A6892FB0F
:1013AC00F3F3064A1360064B00221A6000BF0C3799
:1013BC00BD4680BC704700BF50000020F4000020E8
:1013CC00F800002080B483B000AF7860074B1B6836
:1013DC007A6892FBF3F3064A1360064B00221A60FC
:1013EC0000BF0C37BD4680BC704700BF50000020CA
:1013FC00FC0000200001002080B483B000AF7860B6
:10140C00074B1B687A6892FBF3F3064A1360064B92
:10141C0000221A6000BF0C37BD4680BC704700BF6D
:10142C0050000020040100200801002080B483B08B
:10143C0000AF7860074B1B687A6892FBF3F3064A9F
:10144C001360064B00221A6000BF0C37BD4680BCEF
:10145C00704700BF500000200C010020100100203C
:10146C0080B483B000AF7860074B1B687A6892FB3E
:10147C00F3F3064A1360064B00221A6000BF0C37C8
:10148C00BD4680BC704700BF5000002014010020F6
:10149C001801002080B400AF314B1B68002B0BDD12
:1014AC002F4B1B68013B2E4A13602D4B1B68002BE6
:1014BC0002DC2C4B01221A602B4B1B68002B0BDD22
:1014CC00294B1B68013B284A1360274B1B68002BD8
:1014DC0002DC264B01221A60254B1B68002B0BDD0E
:1014EC00234B1B68013B224A1360214B1B68002BCA
:1014FC0002DC204B01221A601F4B1B68002B0BDDFA
:10150C001D4B1B68013B1C4A13601B4B1B68002BBB
:10151C0002DC1A4B01221A60194B1B68002B0BDDE5
:10152C00174B1B68013B164A1360154B1B68002BAD
:10153C0002DC144B01221A60134B1B68002B0BDDD1
:10154C00114B1B68013B104A13600F4B1B68002B9F
:10155C0002DC0E4B01221A6000BFBD4680BC7047F6
:10156C00EC000020F0000020F4000020F800002027
:10157C00FC000020000100200401002008010020D4
:10158C000C01002010010020140100201801002083
:10159C0080B500AF0A20FFF7D3FE4FF47A70FFF747
:1015AC00DDFE4FF47A70FFF7F3FE4FF47A70FFF71D
:1015BC0009FF4FF47A70FFF753FF4FF47A70FFF77F
:1015CC0035FF00BF80BD000080B483B000AF0E4B70
:1015DC009B690D4A43F0010393610B4B9B6903F02C
:1015EC0001037B607B68084BDB69074A43F080533F
:1015FC00D361054BDB6903F080533B603B6800BF54
:10160C000C37BD4680BC70470010024080B584B0DA
:10161C0000AF78607B681B68B3F1804F13D10C4B23
:10162C00DB690B4A43F00103D361094BDB6903F01F
:10163C000103FB60FB68002200211C2000F0A1F9D3
:10164C001C2000F0BAF900BF1037BD4680BD00BFAA
:10165C000010024080B400AFFEE780B400AFFEE79C
:10166C0080B400AFFEE780B400AFFEE780B400AFFB
:10167C00FEE780B400AF00BFBD4680BC704780B4AD
:10168C0000AF00BFBD4680BC704780B400AF00BF48
:10169C00BD4680BC704780B500AF00F07FF800BF3E
:1016AC0080BD000080B500AF024800F0C7FF00BF4E
:1016BC0080BD00BFA400002080B400AF00BFBD46B9
:1016CC0080BC7047FFF7F8FF0B480C490C4A00230D
:1016DC0002E0D458C4500433C4188C42F9D3094ADC
:1016EC00094C002301E013600432A242FBD301F049
:1016FC00F9FAFFF7BFFA70470000002060000020E5
:10170C007C2D00086000002020010020FEE7000076
:10171C0080B500AF084B1B68074A43F010031360F9
:10172C00032000F023F90F2000F008F8FFF74CFF1E
:10173C000023184680BD00BF0020024080B582B057
:10174C0000AF7860124B1A68124B1B7819464FF495
:10175C007A73B3FBF1F3B2FBF3F3184600F03BF9E9
:10176C000346002B01D001230EE07B680F2B0AD817
:10177C00002279684FF0FF3000F003F9064A7B68CD
:10178C001360002300E0012318460837BD4680BDD6
:10179C00540000205C0000205800002080B400AFF2
:1017AC00054B1B781A46054B1B681344034A136000
:1017BC0000BFBD4680BC70475C0000201C010020AF
:1017CC0080B400AF024B1B681846BD4680BC704706
:1017DC001C01002080B485B000AF78607B6803F0FA
:1017EC000703FB600C4BDB68BB60BA684FF6FF036A
:1017FC001340BB60FB681A02BB68134343F0BF6322
:10180C0043F40033BB60044ABB68D36000BF143799
:10181C00BD4680BC704700BF00ED00E080B400AF57
:10182C00044BDB681B0A03F007031846BD4680BC5B
:10183C00704700BF00ED00E080B483B000AF0346FA
:10184C00FB7197F90730002B0BDBFB7903F01F02C0
:10185C00064997F907305B09012000FA02F241F8BA
:10186C00232000BF0C37BD4680BC704700E100E070
:10187C0080B483B000AF03463960FB7197F9073031
:10188C00002B0ADB3B68DAB20C4997F907301201DE
:10189C00D2B20B4483F800230AE03B68DAB2084961
:1018AC00FB7903F00F03043B1201D2B20B441A76FE
:1018BC0000BF0C37BD4680BC704700BF00E100E0A4
:1018CC0000ED00E080B489B000AFF860B9607A60D8
:1018DC00FB6803F00703FB61FB69C3F10703042BEF
:1018EC0028BF0423BB61FB690433062B02D9FB69B7
:1018FC00033B00E000237B614FF0FF32BB6902FA2F
:10190C0003F3DA43BB681A407B699A404FF0FF310E
:10191C007B6901FA03F3D9437B680B4013431846E8
:10192C002437BD4680BC704780B582B000AF78606C
:10193C007B68013BB3F1807F01D301230FE00A4A9E
:10194C007B68013B53600F214FF0FF30FFF790FF96
:10195C00054B00229A60044B07221A60002318469C
:10196C000837BD4680BD00BF10E000E080B582B0F6
:10197C0000AF78607868FFF72DFF00BF0837BD46D1
:10198C0080BD80B586B000AF0346B9607A60FB734A
:10199C0000237B61FFF742FF78617A68B968786948
:1019AC00FFF790FF024697F90F3011461846FFF7E4
:1019BC005FFF00BF1837BD4680BD80B582B000AF59
:1019CC000346FB7197F907301846FFF735FF00BF48
:1019DC000837BD4680BD80B582B000AF78607868AE
:1019EC00FFF7A2FF034618460837BD4680BD00002E
:1019FC0080B48BB000AF7860396000237B62002329
:101A0C003B6261E101227B6A02FA03F3FB613B68F2
:101A1C001B68FA691340BB61BA69FB699A4240F0D2
:101A2C0050813B685B68974A93425ED0954A9342DB
:101A3C0075D8954A934258D0934A93426FD8934A9B
:101A4C00934252D0914A934269D8914A93424CD0D6
:101A5C008F4A934263D88F4A934246D08D4A934221
:101A6C005DD8122B2AD8122B59D801A252F823F088
:101A7C00F71A0008D11A0008E31A0008251B000801
:101A8C002B1B00082B1B00082B1B00082B1B000812
:101A9C002B1B00082B1B00082B1B00082B1B000802
:101AAC002B1B00082B1B00082B1B00082B1B0008F2
:101ABC002B1B0008D91A0008ED1A0008764A93422D
:101ACC0013D02CE03B68DB683B6229E03B68DB68A9
:101ADC0004333B6224E03B68DB6808333B621FE065
:101AEC003B68DB680C333B621AE03B689B68002B5D
:101AFC0002D104233B6213E03B689B68012B05D1A8
:101B0C0008233B627B68FA691A6109E008233B628F
:101B1C007B68FA695A6103E000233B6200E000BF76
:101B2C00BB69FF2B01D87B6801E07B6804337B61C8
:101B3C00BB69FF2B02D87B6A9B0002E07B6A083BE7
:101B4C009B003B617B691A680F213B6901FA03F327
:101B5C00DB431A40396A3B6901FA03F31A437B6988
:101B6C001A603B685B6803F08053002B00F0A9807F
:101B7C004A4B9B69494A43F001039361474B9B696C
:101B8C0003F00103BB60BB68454A7B6A9B080233C8
:101B9C0052F82330FB607B6A03F003039B000F2297
:101BAC0002FA03F3DB43FA681340FB607B683D4A9F
:101BBC0093420DD07B683C4A934207D07B683B4AEA
:101BCC00934201D1022304E0032302E0012300E04D
:101BDC0000237A6A02F0030292009340FA681343DE
:101BEC00FB602F497B6A9B080233FA6841F823207B
:101BFC003B685B6803F48013002B06D02C4B9A686F
:101C0C002B49BB6913438B6006E0294B9A68BB696F
:101C1C00DB43274913408B603B685B6803F400137C
:101C2C00002B06D0224BDA682149BB691343CB60E9
:101C3C0006E01F4BDA68BB69DB431D491340CB60E0
:101C4C003B685B6803F40033002B06D0184B5A68D2
:101C5C001749BB6913434B6006E0154B5A68BB69C7
:101C6C00DB43134913404B603B685B6803F48033E0
:101C7C00002B1FD00E4B1A680D49BB6913430B6028
:101C8C001FE000BF000032100000311000002210D5
:101C9C000000211000001210000011100010024072
:101CAC000000014000080140000C01400010014000
:101CBC00000401400B4B1A68BB69DB430949134014
:101CCC000B607B6A01337B623B681A687B6A22FA81
:101CDC0003F3002B7FF496AE00BF00BF2C37BD463C
:101CEC0080BC70470004014080B485B000AF7860C0
:101CFC000B467B807B689A687B881340002B02D054
:101D0C000123FB7301E00023FB73FB7B18461437A4
:101D1C00BD4680BC704780B483B000AF78600B4682
:101D2C007B8013467B707B78002B03D07A887B6892
:101D3C001A6103E07B881A047B681A6100BF0C37B8
:101D4C00BD4680BC7047000080B586B000AF78609F
:101D5C007B68002B01D1012372E27B681B6803F0C6
:101D6C000103002B00F08780924B5B6803F00C039F
:101D7C00042B0CD08F4B5B6803F00C03082B12D197
:101D8C008C4B5B6803F48033B3F5803F0BD1894BEC
:101D9C001B6803F40033002B6CD07B685B68002B52
:101DAC0068D101234CE27B685B68B3F5803F06D1B8
:101DBC00804B1B687F4A43F4803313602EE07B68B2
:101DCC005B68002B0CD17B4B1B687A4A23F4803365
:101DDC001360784B1B68774A23F4802313601DE053
:101DEC007B685B68B3F5A02F0CD1724B1B68714AF2
:101DFC0043F4802313606F4B1B686E4A43F48033AB
:101E0C0013600BE06B4B1B686A4A23F4803313603E
:101E1C00684B1B68674A23F4802313607B685B68FC
:101E2C00002B13D0FFF7CCFC386108E0FFF7C8FC9F
:101E3C0002463B69D31A642B01D9032300E25D4BA4
:101E4C001B6803F40033002BF0D014E0FFF7B8FC50
:101E5C00386108E0FFF7B4FC02463B69D31A642BE7
:101E6C0001D90323ECE1534B1B6803F40033002B23
:101E7C00F0D100E000BF7B681B6803F00203002B6D
:101E8C0063D04C4B5B6803F00C03002B0BD0494B1D
:101E9C005B6803F00C03082B1CD1464B5B6803F406
:101EAC008033002B16D1434B1B6803F00203002B2D
:101EBC0005D07B681B69012B01D00123C0E13D4B90
:101ECC001B6823F0F8027B685B69DB00394913431C
:101EDC000B603AE07B681B69002B20D0364B01224B
:101EEC001A60FFF76DFC386108E0FFF769FC0246E9
:101EFC003B69D31A022B01D90323A1E12D4B1B689B
:101F0C0003F00203002BF0D02A4B1B6823F0F802DD
:101F1C007B685B69DB00274913430B6015E0264B9C
:101F2C0000221A60FFF74CFC386108E0FFF748FC10
:101F3C0002463B69D31A022B01D9032380E11D4BC6
:101F4C001B6803F00203002BF0D17B681B6803F0C5
:101F5C000803002B3AD07B689B69002B19D0174BD8
:101F6C0001221A60FFF72CFC386108E0FFF728FC0F
:101F7C0002463B69D31A022B01D9032360E10D4BB6
:101F8C005B6A03F00203002BF0D0012000F09CFAF6
:101F9C001CE00A4B00221A60FFF712FC38610FE0BC
:101FAC00FFF70EFC02463B69D31A022B08D9032318
:101FBC0046E100BF00100240000042428004424251
:101FCC00924B5B6A03F00203002BE9D17B681B6820
:101FDC0003F00403002B00F0A6800023FB758B4B51
:101FEC00DB6903F08053002B0DD1884BDB69874AEA
:101FFC0043F08053D361854BDB6903F08053BB60A6
:10200C00BB680123FB75824B1B6803F48073002BA8
:10201C0018D17F4B1B687E4A43F480731360FFF723
:10202C00CFFB386108E0FFF7CBFB02463B69D31AC4
:10203C00642B01D9032303E1754B1B6803F48073F4
:10204C00002BF0D07B68DB68012B06D16F4B1B6A31
:10205C006E4A43F0010313622DE07B68DB68002BB2
:10206C000CD16A4B1B6A694A23F001031362674B5C
:10207C001B6A664A23F0040313621CE07B68DB686E
:10208C00052B0CD1614B1B6A604A43F004031362AD
:10209C005E4B1B6A5D4A43F0010313620BE05B4B22
:1020AC001B6A5A4A23F001031362584B1B6A574AA6
:1020BC0023F0040313627B68DB68002B15D0FFF759
:1020CC007FFB38610AE0FFF77BFB02463B69D31AC2
:1020DC0041F28832934201D90323B1E04B4B1B6A86
:1020EC0003F00203002BEED014E0FFF769FB38611C
:1020FC000AE0FFF765FB02463B69D31A41F28832CE
:10210C00934201D903239BE0404B1B6A03F002036B
:10211C00002BEED1FB7D012B05D13C4BDB693B4AFF
:10212C0023F08053D3617B68DB69002B00F0878040
:10213C00364B5B6803F00C03082B61D07B68DB69C2
:10214C00022B46D1334B00221A60FFF739FB386162
:10215C0008E0FFF735FB02463B69D31A022B01D985
:10216C0003236DE0294B1B6803F00073002BF0D1A7
:10217C007B681B6AB3F5803F08D1244B5B6823F462
:10218C0000327B689B68214913434B601F4B5B6893
:10219C0023F474127B68196A7B685B6A0B431B49D6
:1021AC0013434B601B4B01221A60FFF709FB38618C
:1021BC0008E0FFF705FB02463B69D31A022B01D955
:1021CC0003233DE0114B1B6803F00073002BF0D090
:1021DC0035E0104B00221A60FFF7F2FA386108E084
:1021EC00FFF7EEFA02463B69D31A022B01D90323FF
:1021FC0026E0064B1B6803F00073002BF0D11EE0A9
:10220C007B68DB69012B07D1012319E00010024028
:10221C0000700040600042420B4B5B68FB60FB6847
:10222C0003F480327B681B6A9A4206D1FB6803F484
:10223C0070127B685B6A9A4201D0012300E0002394
:10224C0018461837BD4680BD0010024080B584B0DA
:10225C0000AF786039607B68002B01D10123D0E09E
:10226C006A4B1B6803F007033A689A4210D9674B14
:10227C001B6823F0070265493B6813430B60634BF3
:10228C001B6803F007033A689A4201D00123B8E0B7
:10229C007B681B6803F00203002B20D07B681B6853
:1022AC0003F00403002B05D0594B5B68584A43F4E8
:1022BC00E06353607B681B6803F00803002B05D0B8
:1022CC00534B5B68524A43F460535360504B5B680A
:1022DC0023F0F0027B689B684D4913434B607B688D
:1022EC001B6803F00103002B40D07B685B68012B5B
:1022FC0007D1474B1B6803F40033002B15D1012386
:10230C007FE07B685B68022B07D1414B1B6803F0B5
:10231C000073002B09D1012373E03D4B1B6803F0C4
:10232C000203002B01D101236BE0394B5B6823F0D6
:10233C0003027B685B68364913434B60FFF740FA36
:10234C00F8600AE0FFF73CFA0246FB68D31A41F248
:10235C008832934201D9032353E02D4B5B6803F081
:10236C000C027B685B689B009A42EBD1274B1B6885
:10237C0003F007033A689A4210D2244B1B6823F0EF
:10238C00070222493B6813430B60204B1B6803F088
:10239C0007033A689A4201D0012332E07B681B683C
:1023AC0003F00403002B08D0194B5B6823F4E062A4
:1023BC007B68DB68164913434B607B681B6803F032
:1023CC000803002B09D0124B5B6823F460527B6826
:1023DC001B69DB000E4913434B6000F021F80246E9
:1023EC000B4B5B681B0903F00F030A49CB5C22FA09
:1023FC0003F3094A1360094B1B681846FFF79EF953
:10240C00002318461037BD4680BD00BF0020024097
:10241C0000100240502D00085400002058000020ED
:10242C0080B487B000AF0023FB600023BB600023A7
:10243C007B6100237B6000233B611E4B5B68FB6070
:10244C00FB6803F00C03042B02D0082B03D027E00D
:10245C00194B3B6127E0FB689B0C03F00F03174AF9
:10246C00D35C7B60FB6803F48033002B10D0114BE2
:10247C005B685B0C03F00103114AD35CBB607B68A7
:10248C000D4A03FB02F2BB68B2FBF3F37B6104E081
:10249C007B680C4A02FB03F37B617B693B6102E0C6
:1024AC00054B3B6100BF3B6918461C37BD4680BCE1
:1024BC00704700BF0010024000127A00602D000827
:1024CC00702D000800093D0080B485B000AF786025
:1024DC000A4B1B680A4AA2FB03235B0A7A6802FBBD
:1024EC0003F3FB6000BFFB685A1EFA60002BF9D1A6
:1024FC0000BF00BF1437BD4680BC7047540000209D
:10250C00D34D621080B582B000AF78607B68002B31
:10251C0001D1012341E07B6893F83D30DBB2002B05
:10252C0006D17B68002283F83C207868FFF76EF8B0
:10253C007B68022283F83D207B681A687B68043331
:10254C001946104600F06EFA7B68012283F846208B
:10255C007B68012283F83E207B68012283F83F20B0
:10256C007B68012283F840207B68012283F841209C
:10257C007B68012283F842207B68012283F8432088
:10258C007B68012283F844207B68012283F8452074
:10259C007B68012283F83D20002318460837BD468E
:1025AC0080BD000080B485B000AF78607B6893F884
:1025BC003D30DBB2012B01D0012335E07B680222D8
:1025CC0083F83D207B681B68DA687B681B6842F0E7
:1025DC000102DA607B681B68164A934209D07B685B
:1025EC001B68B3F1804F04D07B681B68124A93427E
:1025FC0011D17B681B689B6803F00703FB60FB68C9
:10260C00062B10D07B681B681A687B681B6842F02D
:10261C0001021A6007E07B681B681A687B681B68FC
:10262C0042F001021A60002318461437BD4680BCE4
:10263C00704700BF002C01400004004080B582B000
:10264C0000AF78607B681B681B6903F00203022BE8
:10265C0022D17B681B68DB6803F00203022B1BD1C1
:10266C007B681B686FF002021A617B6801221A7783
:10267C007B681B689B6903F00303002B03D078680D
:10268C0000F0B4F905E0786800F0A7F9786800F07C
:10269C00B6F97B6800221A777B681B681B6903F00C
:1026AC000403042B22D17B681B68DB6803F0040352
:1026BC00042B1BD17B681B686FF004021A617B68CA
:1026CC0002221A777B681B689B6903F44073002B0A
:1026DC0003D0786800F08AF905E0786800F07DF99D
:1026EC00786800F08CF97B6800221A777B681B688D
:1026FC001B6903F00803082B22D17B681B68DB687D
:10270C0003F00803082B1BD17B681B686FF00802D1
:10271C001A617B6804221A777B681B68DB6903F0FB
:10272C000303002B03D0786800F060F905E07868AB
:10273C0000F053F9786800F062F97B6800221A7790
:10274C007B681B681B6903F01003102B22D17B687C
:10275C001B68DB6803F01003102B1BD17B681B6814
:10276C006FF010021A617B6808221A777B681B686D
:10277C00DB6903F44073002B03D0786800F036F962
:10278C0005E0786800F029F9786800F038F97B6882
:10279C0000221A777B681B681B6903F00103012B6D
:1027AC000ED17B681B68DB6803F00103012B07D19A
:1027BC007B681B686FF001021A617868FEF75CFB9E
:1027CC007B681B681B6903F08003802B0ED17B6830
:1027DC001B68DB6803F08003802B07D17B681B68C8
:1027EC006FF080021A61786800F06BFA7B681B68E6
:1027FC001B6903F04003402B0ED17B681B68DB6820
:10280C0003F04003402B07D17B681B686FF040023C
:10281C001A61786800F0FCF87B681B681B6903F090
:10282C002003202B0ED17B681B68DB6803F0200390
:10283C00202B07D17B681B686FF020021A61786827
:10284C0000F036FA00BF0837BD4680BD80B584B0B5
:10285C0000AF786039600023FB737B6893F83C30E1
:10286C00012B01D10223B4E07B68012283F83C20C8
:10287C007B68022283F83D207B681B689B68BB60E9
:10288C00BB6823F07703BB60BB6823F47F43BB605A
:10289C007B681B68BA689A603B681B68B3F5005F7D
:1028AC003ED0B3F5005F00F28780B3F5805F00F097
:1028BC008680B3F5805F7FD8702B1AD0702B7BD8B5
:1028CC00602B50D0602B77D8502B3CD0502B73D82A
:1028DC00402B58D0402B6FD8302B64D0302B6BD87A
:1028EC00202B60D0202B67D8002B5CD0102B5AD01B
:1028FC0062E07B6818683B6899683B685A683B687B
:10290C00DB6800F05EF97B681B689B68BB60BB688A
:10291C0043F07703BB607B681B68BA689A604FE032
:10292C007B6818683B6899683B685A683B68DB6849
:10293C0000F047F97B681B689A687B681B6842F457
:10294C0080429A603CE07B6818683B6859683B6839
:10295C00DB681A4600F0BEF87B681B6850211846ED
:10296C0000F015F92CE07B6818683B6859683B68E7
:10297C00DB681A4600F0DCF87B681B68602118469F
:10298C0000F005F91CE07B6818683B6859683B68E7
:10299C00DB681A4600F09EF87B681B6840211846DD
:1029AC0000F0F5F80CE07B681A683B681B68194668
:1029BC00104600F0ECF803E00123FB7300E000BFCD
:1029CC007B68012283F83D207B68002283F83C2041
:1029DC00FB7B18461037BD4680BD80B483B000AF7A
:1029EC00786000BF0C37BD4680BC704780B483B0A4
:1029FC0000AF786000BF0C37BD4680BC704780B418
:102A0C0083B000AF786000BF0C37BD4680BC704708
:102A1C0080B483B000AF786000BF0C37BD4680BC7B
:102A2C007047000080B485B000AF786039607B6877
:102A3C001B68FB607B68254A934207D07B68B3F127
:102A4C00804F03D07B68224A934208D1FB6823F065
:102A5C007003FB603B685B68FA681343FB607B6840
:102A6C001A4A934207D07B68B3F1804F03D07B683E
:102A7C00174A934208D1FB6823F44073FB603B6810
:102A8C00DB68FA681343FB60FB6823F080023B6849
:102A9C005B691343FB607B68FA681A603B689A6851
:102AAC007B68DA623B681A687B689A627B68074AC3
:102ABC00934203D13B681A697B681A637B680122D5
:102ACC005A6100BF1437BD4680BC7047002C0140D2
:102ADC000004004080B487B000AFF860B9607A6041
:102AEC00FB681B6A7B61FB681B6A23F00102FB68B5
:102AFC001A62FB689B693B613B6923F0F0033B6105
:102B0C007B681B013A6913433B617B6923F00A0321
:102B1C007B617A69BB6813437B61FB683A699A6194
:102B2C00FB687A691A6200BF1C37BD4680BC7047CF
:102B3C0080B487B000AFF860B9607A60FB681B6A3C
:102B4C007B61FB681B6A23F01002FB681A62FB684E
:102B5C009B693B613B6923F470433B617B681B03BE
:102B6C003A6913433B617B6923F0A0037B61BB682B
:102B7C001B017A6913437B61FB683A699A61FB68B4
:102B8C007A691A6200BF1C37BD4680BC704780B49E
:102B9C0085B000AF786039607B689B68FB60FB6830
:102BAC0023F07003FB603A68FB68134343F00703A0
:102BBC00FB607B68FA689A6000BF1437BD4680BC26
:102BCC00704780B487B000AFF860B9607A603B6042
:102BDC00FB689B687B617B6923F47F437B613B686B
:102BEC001A027B681A43BB6813437A6913437B61EF
:102BFC00FB687A699A6000BF1C37BD4680BC704781
:102C0C0080B485B000AF786039607B6893F83C3055
:102C1C00012B01D1022341E07B68012283F83C2087
:102C2C007B68022283F83D207B681B685B68FB6035
:102C3C007B681B689B68BB60FB6823F07003FB60C0
:102C4C003B681B68FA681343FB607B681B68FA6877
:102C5C005A607B681B68144A934209D07B681B68D6
:102C6C00B3F1804F04D07B681B68104A93420CD19F
:102C7C00BB6823F08003BB603B685B68BA68134396
:102C8C00BB607B681B68BA689A607B68012283F81A
:102C9C003D207B68002283F83C2000231846143723
:102CAC00BD4680BC704700BF002C014000040040B2
:102CBC0080B483B000AF786000BF0C37BD4680BCD9
:102CCC00704780B483B000AF786000BF0C37BD464E
:102CDC0080BC704703460244934200D1704703F80E
:102CEC00011BF9E770B500260C4D0D4C641BA410AC
:102CFC00A64209D100F01AF800260A4D0A4C641BB2
:102D0C00A410A64205D170BD55F8043B9847013676
:102D1C00EEE755F8043B98470136F2E7742D0008AE
:102D2C00742D0008742D0008782D0008F8B500BF2C
:102D3C00F8BC08BC9E467047F8B500BFF8BC08BC90
:042D4C009E467047E8
:102D5000000000000000000001020304060708094B
:102D600002030405060708090A0B0C0D0E0F1010CC
:042D7000010200005C
:042D74003101000821
:042D78000D01000841
:102D7C000100000001000000010000000100000043
:102D8C000100000001000000010000000100000033
:102D9C000100000001000000010000000100000023
:102DAC00010000000100000005000000020000000E
:102DBC0003000000050000000200000003000000FA
:102DCC000A0000000024F4001000000001000000C4
:04000005080016D108
:00000001FF
